{
  "contractName": "Voting",
  "abi": [
    {
      "anonymous": false,
      "inputs": [],
      "name": "NewVotingSystem",
      "type": "event"
    },
    {
      "anonymous": false,
      "inputs": [
        {
          "indexed": false,
          "internalType": "uint256",
          "name": "proposalId",
          "type": "uint256"
        }
      ],
      "name": "ProposalRegistered",
      "type": "event"
    },
    {
      "anonymous": false,
      "inputs": [
        {
          "indexed": false,
          "internalType": "uint256",
          "name": "proposalId",
          "type": "uint256"
        }
      ],
      "name": "ProposalRemoved",
      "type": "event"
    },
    {
      "anonymous": false,
      "inputs": [],
      "name": "ProposalsRegistrationEnded",
      "type": "event"
    },
    {
      "anonymous": false,
      "inputs": [],
      "name": "ProposalsRegistrationStarted",
      "type": "event"
    },
    {
      "anonymous": false,
      "inputs": [
        {
          "indexed": false,
          "internalType": "address",
          "name": "voter",
          "type": "address"
        },
        {
          "indexed": false,
          "internalType": "uint256",
          "name": "proposalId",
          "type": "uint256"
        }
      ],
      "name": "Voted",
      "type": "event"
    },
    {
      "anonymous": false,
      "inputs": [
        {
          "indexed": false,
          "internalType": "address",
          "name": "voterAddress",
          "type": "address"
        }
      ],
      "name": "VoterRegistered",
      "type": "event"
    },
    {
      "anonymous": false,
      "inputs": [
        {
          "indexed": false,
          "internalType": "address",
          "name": "_address",
          "type": "address"
        }
      ],
      "name": "VoterRemoved",
      "type": "event"
    },
    {
      "anonymous": false,
      "inputs": [
        {
          "indexed": false,
          "internalType": "uint8",
          "name": "_winningProposals",
          "type": "uint8"
        }
      ],
      "name": "VotesTallied",
      "type": "event"
    },
    {
      "anonymous": false,
      "inputs": [],
      "name": "VotingSessionEnded",
      "type": "event"
    },
    {
      "anonymous": false,
      "inputs": [],
      "name": "VotingSessionStarted",
      "type": "event"
    },
    {
      "anonymous": false,
      "inputs": [
        {
          "indexed": false,
          "internalType": "enum Voting.WorkflowStatus",
          "name": "previousStatus",
          "type": "uint8"
        },
        {
          "indexed": false,
          "internalType": "enum Voting.WorkflowStatus",
          "name": "newStatus",
          "type": "uint8"
        }
      ],
      "name": "WorkflowStatusChange",
      "type": "event"
    },
    {
      "inputs": [
        {
          "internalType": "uint256",
          "name": "",
          "type": "uint256"
        }
      ],
      "name": "RoomList",
      "outputs": [
        {
          "internalType": "uint256",
          "name": "id",
          "type": "uint256"
        },
        {
          "internalType": "bool",
          "name": "isActive",
          "type": "bool"
        },
        {
          "internalType": "address",
          "name": "roomOwner",
          "type": "address"
        },
        {
          "internalType": "enum Voting.WorkflowStatus",
          "name": "status",
          "type": "uint8"
        },
        {
          "internalType": "uint8",
          "name": "proposalIds",
          "type": "uint8"
        },
        {
          "internalType": "uint8",
          "name": "votersCount",
          "type": "uint8"
        },
        {
          "internalType": "uint8",
          "name": "winningProposalId",
          "type": "uint8"
        }
      ],
      "stateMutability": "view",
      "type": "function",
      "constant": true
    },
    {
      "inputs": [],
      "name": "TotalRooms",
      "outputs": [
        {
          "internalType": "uint256[]",
          "name": "",
          "type": "uint256[]"
        }
      ],
      "stateMutability": "view",
      "type": "function",
      "constant": true
    },
    {
      "inputs": [
        {
          "internalType": "uint256",
          "name": "roomId",
          "type": "uint256"
        }
      ],
      "name": "getVoters",
      "outputs": [
        {
          "internalType": "address[]",
          "name": "",
          "type": "address[]"
        }
      ],
      "stateMutability": "view",
      "type": "function",
      "constant": true
    },
    {
      "inputs": [
        {
          "internalType": "uint256",
          "name": "roomId",
          "type": "uint256"
        },
        {
          "internalType": "address",
          "name": "_add",
          "type": "address"
        }
      ],
      "name": "getWhiteList",
      "outputs": [
        {
          "components": [
            {
              "internalType": "bool",
              "name": "isRegistered",
              "type": "bool"
            },
            {
              "internalType": "address",
              "name": "_address",
              "type": "address"
            },
            {
              "internalType": "bool",
              "name": "hasVoted",
              "type": "bool"
            },
            {
              "internalType": "uint256",
              "name": "votedProposalId",
              "type": "uint256"
            }
          ],
          "internalType": "struct Voting.Voter",
          "name": "",
          "type": "tuple"
        }
      ],
      "stateMutability": "view",
      "type": "function",
      "constant": true
    },
    {
      "inputs": [
        {
          "internalType": "uint256",
          "name": "roomId",
          "type": "uint256"
        },
        {
          "internalType": "uint256",
          "name": "ind",
          "type": "uint256"
        }
      ],
      "name": "getProposals",
      "outputs": [
        {
          "components": [
            {
              "internalType": "uint8",
              "name": "id",
              "type": "uint8"
            },
            {
              "internalType": "address",
              "name": "owner",
              "type": "address"
            },
            {
              "internalType": "string",
              "name": "description",
              "type": "string"
            },
            {
              "internalType": "uint256",
              "name": "voteCount",
              "type": "uint256"
            }
          ],
          "internalType": "struct Voting.Proposal",
          "name": "",
          "type": "tuple"
        }
      ],
      "stateMutability": "view",
      "type": "function",
      "constant": true
    },
    {
      "inputs": [
        {
          "internalType": "uint256",
          "name": "roomId",
          "type": "uint256"
        }
      ],
      "name": "getWinningProposal",
      "outputs": [
        {
          "components": [
            {
              "internalType": "uint8",
              "name": "id",
              "type": "uint8"
            },
            {
              "internalType": "address",
              "name": "owner",
              "type": "address"
            },
            {
              "internalType": "string",
              "name": "description",
              "type": "string"
            },
            {
              "internalType": "uint256",
              "name": "voteCount",
              "type": "uint256"
            }
          ],
          "internalType": "struct Voting.Proposal",
          "name": "proposal",
          "type": "tuple"
        }
      ],
      "stateMutability": "view",
      "type": "function",
      "constant": true
    },
    {
      "inputs": [
        {
          "internalType": "uint256",
          "name": "id_",
          "type": "uint256"
        }
      ],
      "name": "createRooms",
      "outputs": [],
      "stateMutability": "nonpayable",
      "type": "function"
    },
    {
      "inputs": [
        {
          "internalType": "uint256",
          "name": "roomId",
          "type": "uint256"
        }
      ],
      "name": "deleteRoom",
      "outputs": [],
      "stateMutability": "nonpayable",
      "type": "function"
    },
    {
      "inputs": [
        {
          "internalType": "address",
          "name": "_address",
          "type": "address"
        },
        {
          "internalType": "uint256",
          "name": "roomId",
          "type": "uint256"
        }
      ],
      "name": "addVoter",
      "outputs": [],
      "stateMutability": "nonpayable",
      "type": "function"
    },
    {
      "inputs": [
        {
          "internalType": "address",
          "name": "_address",
          "type": "address"
        },
        {
          "internalType": "uint256",
          "name": "roomId",
          "type": "uint256"
        }
      ],
      "name": "deleteVoter",
      "outputs": [],
      "stateMutability": "nonpayable",
      "type": "function"
    },
    {
      "inputs": [
        {
          "internalType": "uint256",
          "name": "roomId",
          "type": "uint256"
        }
      ],
      "name": "resetVotingSession",
      "outputs": [],
      "stateMutability": "nonpayable",
      "type": "function"
    },
    {
      "inputs": [
        {
          "internalType": "uint256",
          "name": "roomId",
          "type": "uint256"
        }
      ],
      "name": "startProposalRegistration",
      "outputs": [],
      "stateMutability": "nonpayable",
      "type": "function"
    },
    {
      "inputs": [
        {
          "internalType": "uint256",
          "name": "roomId",
          "type": "uint256"
        }
      ],
      "name": "endProposalRegistration",
      "outputs": [],
      "stateMutability": "nonpayable",
      "type": "function"
    },
    {
      "inputs": [
        {
          "internalType": "uint256",
          "name": "roomId",
          "type": "uint256"
        }
      ],
      "name": "startVotingSession",
      "outputs": [],
      "stateMutability": "nonpayable",
      "type": "function"
    },
    {
      "inputs": [
        {
          "internalType": "uint256",
          "name": "roomId",
          "type": "uint256"
        }
      ],
      "name": "endVotingSession",
      "outputs": [],
      "stateMutability": "nonpayable",
      "type": "function"
    },
    {
      "inputs": [
        {
          "internalType": "string",
          "name": "_description",
          "type": "string"
        },
        {
          "internalType": "uint256",
          "name": "roomId",
          "type": "uint256"
        }
      ],
      "name": "addProposal",
      "outputs": [],
      "stateMutability": "nonpayable",
      "type": "function"
    },
    {
      "inputs": [
        {
          "internalType": "uint256",
          "name": "_id",
          "type": "uint256"
        },
        {
          "internalType": "uint256",
          "name": "roomId",
          "type": "uint256"
        }
      ],
      "name": "deleteProposal",
      "outputs": [],
      "stateMutability": "nonpayable",
      "type": "function"
    },
    {
      "inputs": [
        {
          "internalType": "uint256",
          "name": "_id",
          "type": "uint256"
        },
        {
          "internalType": "uint256",
          "name": "roomId",
          "type": "uint256"
        }
      ],
      "name": "deleteProposalAdmin",
      "outputs": [],
      "stateMutability": "nonpayable",
      "type": "function"
    },
    {
      "inputs": [
        {
          "internalType": "uint256",
          "name": "_id",
          "type": "uint256"
        },
        {
          "internalType": "uint256",
          "name": "roomId",
          "type": "uint256"
        }
      ],
      "name": "vote",
      "outputs": [],
      "stateMutability": "nonpayable",
      "type": "function"
    },
    {
      "inputs": [
        {
          "internalType": "uint256",
          "name": "roomId",
          "type": "uint256"
        }
      ],
      "name": "count",
      "outputs": [],
      "stateMutability": "nonpayable",
      "type": "function"
    }
  ],
  "bytecode": "0x608060405234801561001057600080fd5b50612cb0806100206000396000f3fe608060405234801561001057600080fd5b506004361061012c5760003560e01c806386b646f2116100ad578063b384abef11610071578063b384abef14610341578063b9f05f2f1461035d578063c208abdc14610379578063db5f118114610395578063ea9815a1146103b15761012c565b806386b646f21461029f5780638819d290146102cf57806394d2545c146102eb5780639980a55a14610309578063afe16d89146103255761012c565b80633b3546c8116100f45780633b3546c8146101ff5780633eb8031c1461021b5780634e114b5a146102375780635e3b436514610253578063682b7100146102835761012c565b806305bcd6ef146101315780630820e22914610161578063181931e914610197578063292ca166146101b357806335bb3d30146101e3575b600080fd5b61014b600480360381019061014691906124a4565b6103cd565b6040516101589190612957565b60405180910390f35b61017b6004803603810190610176919061247b565b6104d0565b60405161018e979695949392919061298d565b60405180910390f35b6101b160048036038101906101ac919061247b565b610573565b005b6101cd60048036038101906101c8919061247b565b610757565b6040516101da9190612935565b60405180910390f35b6101fd60048036038101906101f8919061247b565b6108db565b005b6102196004803603810190610214919061247b565b610a15565b005b610235600480360381019061023091906124e0565b610c61565b005b610251600480360381019061024c91906123eb565b610e42565b005b61026d600480360381019061026891906124e0565b610fdc565b60405161027a9190612935565b60405180910390f35b61029d6004803603810190610298919061247b565b61113c565b005b6102b960048036038101906102b4919061247b565b6111da565b6040516102c69190612888565b60405180910390f35b6102e960048036038101906102e491906124e0565b61127d565b005b6102f361136a565b60405161030091906128aa565b60405180910390f35b610323600480360381019061031e919061247b565b6113c2565b005b61033f600480360381019061033a919061247b565b6114fc565b005b61035b600480360381019061035691906124e0565b611636565b005b610377600480360381019061037291906123eb565b61187b565b005b610393600480360381019061038e9190612427565b611b53565b005b6103af60048036038101906103aa919061247b565b611e5f565b005b6103cb60048036038101906103c6919061247b565b611f95565b005b6103d56120cf565b60008084815260200190815260200160002060040160008373ffffffffffffffffffffffffffffffffffffffff1673ffffffffffffffffffffffffffffffffffffffff1681526020019081526020016000206040518060800160405290816000820160009054906101000a900460ff161515151581526020016000820160019054906101000a900473ffffffffffffffffffffffffffffffffffffffff1673ffffffffffffffffffffffffffffffffffffffff1673ffffffffffffffffffffffffffffffffffffffff1681526020016000820160159054906101000a900460ff16151515158152602001600182015481525050905092915050565b60006020528060005260406000206000915090508060000154908060010160009054906101000a900460ff16908060010160019054906101000a900473ffffffffffffffffffffffffffffffffffffffff16908060030160009054906101000a900460ff16908060060160009054906101000a900460ff16908060060160019054906101000a900460ff16908060060160029054906101000a900460ff16905087565b61057b612111565b8181600001818152505033816040019073ffffffffffffffffffffffffffffffffffffffff16908173ffffffffffffffffffffffffffffffffffffffff16815250506001816020019015159081151581525050806000808481526020019081526020016000206000820151816000015560208201518160010160006101000a81548160ff02191690831515021790555060408201518160010160016101000a81548173ffffffffffffffffffffffffffffffffffffffff021916908373ffffffffffffffffffffffffffffffffffffffff160217905550606082015181600201908051906020019061066e929190612182565b5060808201518160030160006101000a81548160ff0219169083600581111561069357fe5b021790555060a08201518160060160006101000a81548160ff021916908360ff16021790555060c08201518160060160016101000a81548160ff021916908360ff16021790555060e08201518160060160026101000a81548160ff021916908360ff16021790555090505060018290806001815401808255809150506001900390600052602060002001600090919091909150557f28c5e727295d809da653948416bdc4fe30913878a5f1332ded39bc4730d10c5660405160405180910390a15050565b61075f61220c565b600080838152602001908152602001600020600501600080600085815260200190815260200160002060060160029054906101000a900460ff1660ff1681526020019081526020016000206040518060800160405290816000820160009054906101000a900460ff1660ff1660ff1681526020016000820160019054906101000a900473ffffffffffffffffffffffffffffffffffffffff1673ffffffffffffffffffffffffffffffffffffffff1673ffffffffffffffffffffffffffffffffffffffff168152602001600182018054600181600116156101000203166002900480601f0160208091040260200160405190810160405280929190818152602001828054600181600116156101000203166002900480156108c15780601f10610896576101008083540402835291602001916108c1565b820191906000526020600020905b8154815290600101906020018083116108a457829003601f168201915b505050505081526020016002820154815250509050919050565b3373ffffffffffffffffffffffffffffffffffffffff1660008083815260200190815260200160002060010160019054906101000a900473ffffffffffffffffffffffffffffffffffffffff1673ffffffffffffffffffffffffffffffffffffffff161461094857600080fd5b600080600083815260200190815260200160002060030160009054906101000a900460ff1690506000600490508060008085815260200190815260200160002060030160006101000a81548160ff021916908360058111156109a657fe5b02179055507fc379d349a6301baf50fb2f98d829f4ae10b1cdb7c66f4e4d8117302df7b8cd4c60405160405180910390a17f0a97a4ee45751e2abf3e4fc8946939630b11b371ea8ae39ccdc3056e98f5cc3f8282604051610a089291906128cc565b60405180910390a1505050565b3373ffffffffffffffffffffffffffffffffffffffff1660008083815260200190815260200160002060010160019054906101000a900473ffffffffffffffffffffffffffffffffffffffff1673ffffffffffffffffffffffffffffffffffffffff1614610a8257600080fd5b60046005811115610a8f57fe5b60008083815260200190815260200160002060030160009054906101000a900460ff166005811115610abd57fe5b14610ac757600080fd5b60008060005b60008085815260200190815260200160002060060160009054906101000a900460ff1660ff168111610b9d57600080858152602001908152602001600020600501600082815260200190815260200160002060020154821015610b90576000808581526020019081526020016000206005016000828152602001908152602001600020600201549150600080858152602001908152602001600020600501600082815260200190815260200160002060000160009054906101000a900460ff1692505b8080600101915050610acd565b508160008085815260200190815260200160002060060160026101000a81548160ff021916908360ff160217905550600560008085815260200190815260200160002060030160006101000a81548160ff02191690836005811115610bfe57fe5b02179055507f7c75ab0a0bf35a72ab671eb9c501a330c5572c09ecdc660fcf5564e5abaf010760008085815260200190815260200160002060060160029054906101000a900460ff16604051610c549190612a17565b60405180910390a1505050565b6001151560008083815260200190815260200160002060040160003373ffffffffffffffffffffffffffffffffffffffff1673ffffffffffffffffffffffffffffffffffffffff16815260200190815260200160002060000160009054906101000a900460ff16151514610d0a576040517f08c379a0000000000000000000000000000000000000000000000000000000008152600401610d01906128f5565b60405180910390fd5b3373ffffffffffffffffffffffffffffffffffffffff16600080838152602001908152602001600020600501600084815260200190815260200160002060000160019054906101000a900473ffffffffffffffffffffffffffffffffffffffff1673ffffffffffffffffffffffffffffffffffffffff1614610d8b57600080fd5b6000808281526020019081526020016000206005016000838152602001908152602001600020600080820160006101000a81549060ff02191690556000820160016101000a81549073ffffffffffffffffffffffffffffffffffffffff0219169055600182016000610dfd919061224d565b600282016000905550507fd412ca680e6dcd7bc731a6c8d9ad74bea65b8d0dd85d47d29377d99c53326cf782604051610e369190612972565b60405180910390a15050565b3373ffffffffffffffffffffffffffffffffffffffff1660008083815260200190815260200160002060010160019054906101000a900473ffffffffffffffffffffffffffffffffffffffff1673ffffffffffffffffffffffffffffffffffffffff1614610eaf57600080fd5b60008082815260200190815260200160002060040160008373ffffffffffffffffffffffffffffffffffffffff1673ffffffffffffffffffffffffffffffffffffffff168152602001908152602001600020600080820160006101000a81549060ff02191690556000820160016101000a81549073ffffffffffffffffffffffffffffffffffffffff02191690556000820160156101000a81549060ff021916905560018201600090555050600080828152602001908152602001600020600601600181819054906101000a900460ff16809291906001900391906101000a81548160ff021916908360ff160217905550507fa14a79af012d1756818f9bd59ccfc9ad185a71df86b9392d9059d9e6faf6d64482604051610fd09190612844565b60405180910390a15050565b610fe461220c565b60008084815260200190815260200160002060050160008381526020019081526020016000206040518060800160405290816000820160009054906101000a900460ff1660ff1660ff1681526020016000820160019054906101000a900473ffffffffffffffffffffffffffffffffffffffff1673ffffffffffffffffffffffffffffffffffffffff1673ffffffffffffffffffffffffffffffffffffffff168152602001600182018054600181600116156101000203166002900480601f0160208091040260200160405190810160405280929190818152602001828054600181600116156101000203166002900480156111215780601f106110f657610100808354040283529160200191611121565b820191906000526020600020905b81548152906001019060200180831161110457829003601f168201915b50505050508152602001600282015481525050905092915050565b3373ffffffffffffffffffffffffffffffffffffffff1660008083815260200190815260200160002060010160019054906101000a900473ffffffffffffffffffffffffffffffffffffffff1673ffffffffffffffffffffffffffffffffffffffff16146111a957600080fd5b600080600083815260200190815260200160002060010160006101000a81548160ff02191690831515021790555050565b606060008083815260200190815260200160002060020180548060200260200160405190810160405280929190818152602001828054801561127157602002820191906000526020600020905b8160009054906101000a900473ffffffffffffffffffffffffffffffffffffffff1673ffffffffffffffffffffffffffffffffffffffff1681526020019060010190808311611227575b50505050509050919050565b3373ffffffffffffffffffffffffffffffffffffffff1660008083815260200190815260200160002060010160019054906101000a900473ffffffffffffffffffffffffffffffffffffffff1673ffffffffffffffffffffffffffffffffffffffff16146112ea57600080fd5b6000808281526020019081526020016000206005016000838152602001908152602001600020600080820160006101000a81549060ff02191690556000820160016101000a81549073ffffffffffffffffffffffffffffffffffffffff021916905560018201600061135c919061224d565b600282016000905550505050565b606060018054806020026020016040519081016040528092919081815260200182805480156113b857602002820191906000526020600020905b8154815260200190600101908083116113a4575b5050505050905090565b3373ffffffffffffffffffffffffffffffffffffffff1660008083815260200190815260200160002060010160019054906101000a900473ffffffffffffffffffffffffffffffffffffffff1673ffffffffffffffffffffffffffffffffffffffff161461142f57600080fd5b600080600083815260200190815260200160002060030160009054906101000a900460ff1690506000600390508060008085815260200190815260200160002060030160006101000a81548160ff0219169083600581111561148d57fe5b02179055507f1b8e19a458c1bcd88553332c518cc5c4e2d5793e712ee766d4f1c14f672ef1f560405160405180910390a17f0a97a4ee45751e2abf3e4fc8946939630b11b371ea8ae39ccdc3056e98f5cc3f82826040516114ef9291906128cc565b60405180910390a1505050565b3373ffffffffffffffffffffffffffffffffffffffff1660008083815260200190815260200160002060010160019054906101000a900473ffffffffffffffffffffffffffffffffffffffff1673ffffffffffffffffffffffffffffffffffffffff161461156957600080fd5b600080600083815260200190815260200160002060030160009054906101000a900460ff1690506000600290508060008085815260200190815260200160002060030160006101000a81548160ff021916908360058111156115c757fe5b02179055507f240cb87b2e4df4c318e72bd714d45a9cad60249e883ff56b1fffd83a4595a8fa60405160405180910390a17f0a97a4ee45751e2abf3e4fc8946939630b11b371ea8ae39ccdc3056e98f5cc3f82826040516116299291906128cc565b60405180910390a1505050565b6001151560008083815260200190815260200160002060040160003373ffffffffffffffffffffffffffffffffffffffff1673ffffffffffffffffffffffffffffffffffffffff16815260200190815260200160002060000160009054906101000a900460ff161515146116df576040517f08c379a00000000000000000000000000000000000000000000000000000000081526004016116d6906128f5565b60405180910390fd5b600360058111156116ec57fe5b60008083815260200190815260200160002060030160009054906101000a900460ff16600581111561171a57fe5b1461172457600080fd5b6000151560008083815260200190815260200160002060040160003373ffffffffffffffffffffffffffffffffffffffff1673ffffffffffffffffffffffffffffffffffffffff16815260200190815260200160002060000160159054906101000a900460ff1615151461179757600080fd5b600160008083815260200190815260200160002060040160003373ffffffffffffffffffffffffffffffffffffffff1673ffffffffffffffffffffffffffffffffffffffff16815260200190815260200160002060000160156101000a81548160ff0219169083151502179055506000808281526020019081526020016000206005016000838152602001908152602001600020600201600081548092919060010191905055507f4d99b957a2bc29a30ebd96a7be8e68fe50a3c701db28a91436490b7d53870ca4338360405161186f92919061285f565b60405180910390a15050565b3373ffffffffffffffffffffffffffffffffffffffff1660008083815260200190815260200160002060010160019054906101000a900473ffffffffffffffffffffffffffffffffffffffff1673ffffffffffffffffffffffffffffffffffffffff16146118e857600080fd5b600060058111156118f557fe5b60008083815260200190815260200160002060030160009054906101000a900460ff16600581111561192357fe5b1461192d57600080fd5b6119356120cf565b60405180608001604052806001151581526020018473ffffffffffffffffffffffffffffffffffffffff168152602001600015158152602001600081525090508060008084815260200190815260200160002060040160008573ffffffffffffffffffffffffffffffffffffffff1673ffffffffffffffffffffffffffffffffffffffff16815260200190815260200160002060008201518160000160006101000a81548160ff02191690831515021790555060208201518160000160016101000a81548173ffffffffffffffffffffffffffffffffffffffff021916908373ffffffffffffffffffffffffffffffffffffffff16021790555060408201518160000160156101000a81548160ff02191690831515021790555060608201518160010155905050600080838152602001908152602001600020600201839080600181540180825580915050600190039060005260206000200160009091909190916101000a81548173ffffffffffffffffffffffffffffffffffffffff021916908373ffffffffffffffffffffffffffffffffffffffff160217905550600080838152602001908152602001600020600601600181819054906101000a900460ff168092919060010191906101000a81548160ff021916908360ff160217905550507fb6be2187d059cc2a55fe29e0e503b566e1e0f8c8780096e185429350acffd3dd83604051611b469190612844565b60405180910390a1505050565b6001151560008083815260200190815260200160002060040160003373ffffffffffffffffffffffffffffffffffffffff1673ffffffffffffffffffffffffffffffffffffffff16815260200190815260200160002060000160009054906101000a900460ff16151514611bfc576040517f08c379a0000000000000000000000000000000000000000000000000000000008152600401611bf3906128f5565b60405180910390fd5b60016005811115611c0957fe5b60008083815260200190815260200160002060030160009054906101000a900460ff166005811115611c3757fe5b14611c77576040517f08c379a0000000000000000000000000000000000000000000000000000000008152600401611c6e90612915565b60405180910390fd5b611c7f61220c565b604051806080016040528060008085815260200190815260200160002060060160009054906101000a900460ff1660ff1681526020013373ffffffffffffffffffffffffffffffffffffffff1681526020018481526020016000815250905080600080848152602001908152602001600020600501600080600086815260200190815260200160002060060160009054906101000a900460ff1660ff16815260200190815260200160002060008201518160000160006101000a81548160ff021916908360ff16021790555060208201518160000160016101000a81548173ffffffffffffffffffffffffffffffffffffffff021916908373ffffffffffffffffffffffffffffffffffffffff1602179055506040820151816001019080519060200190611dae929190612295565b5060608201518160020155905050600080838152602001908152602001600020600601600081819054906101000a900460ff168092919060010191906101000a81548160ff021916908360ff160217905550507f92e393e9b54e2f801d3ea4beb0c5e71a21cc34a5d34b77d0fb8a3aa1650dc18f60008084815260200190815260200160002060060160009054906101000a900460ff16604051611e5291906129fc565b60405180910390a1505050565b3373ffffffffffffffffffffffffffffffffffffffff1660008083815260200190815260200160002060010160019054906101000a900473ffffffffffffffffffffffffffffffffffffffff1673ffffffffffffffffffffffffffffffffffffffff1614611ecc57600080fd5b600080600083815260200190815260200160002060030160009054906101000a900460ff16905060008060008085815260200190815260200160002060030160006101000a81548160ff02191690836005811115611f2657fe5b02179055507f28c5e727295d809da653948416bdc4fe30913878a5f1332ded39bc4730d10c5660405160405180910390a17f0a97a4ee45751e2abf3e4fc8946939630b11b371ea8ae39ccdc3056e98f5cc3f8282604051611f889291906128cc565b60405180910390a1505050565b3373ffffffffffffffffffffffffffffffffffffffff1660008083815260200190815260200160002060010160019054906101000a900473ffffffffffffffffffffffffffffffffffffffff1673ffffffffffffffffffffffffffffffffffffffff161461200257600080fd5b600080600083815260200190815260200160002060030160009054906101000a900460ff1690506000600190508060008085815260200190815260200160002060030160006101000a81548160ff0219169083600581111561206057fe5b02179055507f344c25562921d075a298d34b6dd1fd00d36ff293974539dfd4a8c625d9f0064c60405160405180910390a17f0a97a4ee45751e2abf3e4fc8946939630b11b371ea8ae39ccdc3056e98f5cc3f82826040516120c29291906128cc565b60405180910390a1505050565b6040518060800160405280600015158152602001600073ffffffffffffffffffffffffffffffffffffffff168152602001600015158152602001600081525090565b60405180610100016040528060008152602001600015158152602001600073ffffffffffffffffffffffffffffffffffffffff168152602001606081526020016000600581111561215e57fe5b8152602001600060ff168152602001600060ff168152602001600060ff1681525090565b8280548282559060005260206000209081019282156121fb579160200282015b828111156121fa5782518260006101000a81548173ffffffffffffffffffffffffffffffffffffffff021916908373ffffffffffffffffffffffffffffffffffffffff160217905550916020019190600101906121a2565b5b5090506122089190612315565b5090565b6040518060800160405280600060ff168152602001600073ffffffffffffffffffffffffffffffffffffffff16815260200160608152602001600081525090565b50805460018160011615610100020316600290046000825580601f106122735750612292565b601f0160209004906000526020600020908101906122919190612350565b5b50565b828054600181600116156101000203166002900490600052602060002090601f016020900481019282601f106122d657805160ff1916838001178555612304565b82800160010185558215612304579182015b828111156123035782518255916020019190600101906122e8565b5b5090506123119190612350565b5090565b5b8082111561234c57600081816101000a81549073ffffffffffffffffffffffffffffffffffffffff021916905550600101612316565b5090565b5b80821115612369576000816000905550600101612351565b5090565b60008135905061237c81612c4c565b92915050565b600082601f83011261239357600080fd5b81356123a66123a182612a5f565b612a32565b915080825260208301602083018583830111156123c257600080fd5b6123cd838284612bec565b50505092915050565b6000813590506123e581612c63565b92915050565b600080604083850312156123fe57600080fd5b600061240c8582860161236d565b925050602061241d858286016123d6565b9150509250929050565b6000806040838503121561243a57600080fd5b600083013567ffffffffffffffff81111561245457600080fd5b61246085828601612382565b9250506020612471858286016123d6565b9150509250929050565b60006020828403121561248d57600080fd5b600061249b848285016123d6565b91505092915050565b600080604083850312156124b757600080fd5b60006124c5858286016123d6565b92505060206124d68582860161236d565b9150509250929050565b600080604083850312156124f357600080fd5b6000612501858286016123d6565b9250506020612512858286016123d6565b9150509250929050565b6000612528838361255b565b60208301905092915050565b600061254083836127f9565b60208301905092915050565b61255581612b92565b82525050565b61256481612b2a565b82525050565b61257381612b2a565b82525050565b600061258482612aab565b61258e8185612ae6565b935061259983612a8b565b8060005b838110156125ca5781516125b1888261251c565b97506125bc83612acc565b92505060018101905061259d565b5085935050505092915050565b60006125e282612ab6565b6125ec8185612af7565b93506125f783612a9b565b8060005b8381101561262857815161260f8882612534565b975061261a83612ad9565b9250506001810190506125fb565b5085935050505092915050565b61263e81612b3c565b82525050565b61264d81612b3c565b82525050565b61265c81612ba4565b82525050565b600061266d82612ac1565b6126778185612b08565b9350612687818560208601612bfb565b61269081612c2e565b840191505092915050565b60006126a8601583612b19565b91507f766f746572206e6f742077686974656c697374656400000000000000000000006000830152602082019050919050565b60006126e8602183612b19565b91507f50726f706f73616c732073657373696f6e20686173206e6f742073746172746560008301527f64000000000000000000000000000000000000000000000000000000000000006020830152604082019050919050565b60006080830160008301516127596000860182612826565b50602083015161276c602086018261255b565b50604083015184820360408601526127848282612662565b915050606083015161279960608601826127f9565b508091505092915050565b6080820160008201516127ba6000850182612635565b5060208201516127cd602085018261255b565b5060408201516127e06040850182612635565b5060608201516127f360608501826127f9565b50505050565b61280281612b7b565b82525050565b61281181612b7b565b82525050565b61282081612bda565b82525050565b61282f81612b85565b82525050565b61283e81612b85565b82525050565b6000602082019050612859600083018461256a565b92915050565b6000604082019050612874600083018561254c565b6128816020830184612808565b9392505050565b600060208201905081810360008301526128a28184612579565b905092915050565b600060208201905081810360008301526128c481846125d7565b905092915050565b60006040820190506128e16000830185612653565b6128ee6020830184612653565b9392505050565b6000602082019050818103600083015261290e8161269b565b9050919050565b6000602082019050818103600083015261292e816126db565b9050919050565b6000602082019050818103600083015261294f8184612741565b905092915050565b600060808201905061296c60008301846127a4565b92915050565b60006020820190506129876000830184612808565b92915050565b600060e0820190506129a2600083018a612808565b6129af6020830189612644565b6129bc604083018861256a565b6129c96060830187612653565b6129d66080830186612835565b6129e360a0830185612835565b6129f060c0830184612835565b98975050505050505050565b6000602082019050612a116000830184612817565b92915050565b6000602082019050612a2c6000830184612835565b92915050565b6000604051905081810181811067ffffffffffffffff82111715612a5557600080fd5b8060405250919050565b600067ffffffffffffffff821115612a7657600080fd5b601f19601f8301169050602081019050919050565b6000819050602082019050919050565b6000819050602082019050919050565b600081519050919050565b600081519050919050565b600081519050919050565b6000602082019050919050565b6000602082019050919050565b600082825260208201905092915050565b600082825260208201905092915050565b600082825260208201905092915050565b600082825260208201905092915050565b6000612b3582612b5b565b9050919050565b60008115159050919050565b6000819050612b5682612c3f565b919050565b600073ffffffffffffffffffffffffffffffffffffffff82169050919050565b6000819050919050565b600060ff82169050919050565b6000612b9d82612bb6565b9050919050565b6000612baf82612b48565b9050919050565b6000612bc182612bc8565b9050919050565b6000612bd382612b5b565b9050919050565b6000612be582612b85565b9050919050565b82818337600083830152505050565b60005b83811015612c19578082015181840152602081019050612bfe565b83811115612c28576000848401525b50505050565b6000601f19601f8301169050919050565b60068110612c4957fe5b50565b612c5581612b2a565b8114612c6057600080fd5b50565b612c6c81612b7b565b8114612c7757600080fd5b5056fea26469706673582212207800d62bd9858bcc2d8d829c1415268c03c5d2eec7138f003eb45aff6159fc1e64736f6c634300060c0033",
  "immutableReferences": {},
  "source": "  \r\n///SPDX-License-Identifier: GPL-3.0\r\npragma solidity  ^ 0.6.0 ;\r\npragma experimental ABIEncoderV2;\r\n\r\ncontract  Voting  {\r\n    \r\n    //Voter Struct\r\n    struct Voter {\r\n        bool isRegistered;\r\n        address _address;\r\n        bool hasVoted;\r\n        uint256 votedProposalId;\r\n\r\n    }\r\n    //Proposal Struct\r\n    struct Proposal {\r\n        uint8 id;\r\n        address owner;\r\n        string description;\r\n        uint256 voteCount;\r\n    }\r\n\r\n    enum WorkflowStatus {\r\n        RegisteringVoters,\r\n        ProposalsRegistrationStarted,\r\n        ProposalsRegistrationEnded,\r\n        VotingSessionStarted,\r\n        VotingSessionEnded,\r\n        VotesTallied\r\n    }\r\n\r\n    event NewVotingSystem ();\r\n    event VoterRegistered ( address  voterAddress );\r\n    event VoterRemoved ( address  _address );\r\n    event ProposalsRegistrationStarted ();\r\n    event ProposalsRegistrationEnded ();\r\n    event ProposalRegistered ( uint256  proposalId );\r\n    event ProposalRemoved ( uint256  proposalId );\r\n    event VotingSessionStarted ();\r\n    event VotingSessionEnded ();\r\n    event Voted ( address  voter , uint256  proposalId );\r\n    event VotesTallied ( uint8 _winningProposals  ) ;\r\n    event WorkflowStatusChange (\r\n        WorkflowStatus previousStatus,\r\n        WorkflowStatus newStatus\r\n    );\r\n\r\n    //Room Structure\r\n\r\n\r\n    struct Room{\r\n        uint256 id;\r\n        bool isActive;\r\n        address roomOwner;\r\n        address [] voters;\r\n        WorkflowStatus  status;\r\n        mapping (address => Voter)  whiteList;\r\n        mapping (uint256  => Proposal) proposals;\r\n        uint8   proposalIds;\r\n        uint8   votersCount;\r\n        uint8   winningProposalId;\r\n\r\n    }\r\n    \r\n     \r\n        mapping(uint256 => Room) public RoomList;\r\n        uint256[]  totalRooms;    \r\n    \r\n      function TotalRooms () public  view  returns ( uint256 [] memory) {\r\n        return totalRooms;\r\n    }\r\n\r\n    function getVoters (uint256 roomId) public  view  returns ( address [] memory ) {\r\n        return RoomList[roomId].voters;\r\n    }\r\n    function getWhiteList (uint256 roomId,address _add) public  view  returns ( Voter memory ) {\r\n        return RoomList[roomId].whiteList[_add];\r\n    }\r\n     function getProposals (uint256 roomId,uint256 ind) public  view  returns ( Proposal memory ) {\r\n        return RoomList[roomId].proposals[ind];\r\n    }\r\n\r\n    function getWinningProposal (uint256 roomId) public  view  returns (Proposal memory  proposal ){\r\n\r\n        return RoomList[roomId].proposals[RoomList[roomId].winningProposalId];\r\n    }\r\n    //Create Rooms\r\n      function createRooms(uint256 id_) public{\r\n        Room memory newRoom;\r\n        newRoom.id = id_;\r\n        newRoom.roomOwner = msg.sender;\r\n        newRoom.isActive = true;\r\n        RoomList[id_] = newRoom;\r\n        totalRooms.push(id_); \r\n        emit NewVotingSystem  ();\r\n\r\n\r\n    }\r\n    //Delete Rooms\r\n    function deleteRoom(uint256 roomId)public {\r\n        require(RoomList[roomId].roomOwner == msg.sender);\r\n        RoomList[roomId].isActive = false;\r\n    }\r\n        \r\n    ///Add voter and whitelist\r\n    function addVoter (address _address,uint256 roomId ) public   {\r\n        require(RoomList[roomId].roomOwner == msg.sender);\r\n        require (RoomList[roomId].status == WorkflowStatus.RegisteringVoters);\r\n        Voter memory newVoter =  Voter ( true , _address, false , 0 );\r\n        RoomList[roomId].whiteList[_address] = newVoter;\r\n        RoomList[roomId].voters. push (_address);\r\n        RoomList[roomId].votersCount ++ ;\r\n        emit  VoterRegistered (_address);\r\n    }\r\n    //delete voter\r\n    function deleteVoter ( address _address,uint256 roomId ) public   {\r\n        require(RoomList[roomId].roomOwner == msg.sender);\r\n        delete RoomList[roomId].whiteList[_address];\r\n        RoomList[roomId].votersCount -- ;\r\n        emit  VoterRemoved (_address);\r\n    }\r\n\r\n    function resetVotingSession (uint256 roomId) public  {\r\n      require(RoomList[roomId].roomOwner == msg.sender);\r\n        WorkflowStatus previous = RoomList[roomId].status;\r\n        WorkflowStatus newStatus = WorkflowStatus.RegisteringVoters;\r\n        RoomList[roomId].status = newStatus;\r\n        emit NewVotingSystem  ( );\r\n        emit  WorkflowStatusChange (previous, newStatus);\r\n    }\r\n\r\n\r\n    function startProposalRegistration (uint256 roomId) public  {\r\n        require(RoomList[roomId].roomOwner == msg.sender);\r\n        WorkflowStatus previous = RoomList[roomId].status;\r\n        WorkflowStatus newStatus = WorkflowStatus.ProposalsRegistrationStarted;\r\n        RoomList[roomId].status = newStatus;\r\n        emit  ProposalsRegistrationStarted ();\r\n        emit  WorkflowStatusChange (previous, newStatus);\r\n    }\r\n\r\n    function endProposalRegistration (uint256 roomId) public  {\r\n        require(RoomList[roomId].roomOwner == msg.sender);\r\n        WorkflowStatus previous = RoomList[roomId].status;\r\n        WorkflowStatus newStatus = WorkflowStatus.ProposalsRegistrationEnded;\r\n         RoomList[roomId].status = newStatus;\r\n        emit  ProposalsRegistrationEnded ();\r\n        emit  WorkflowStatusChange (previous, newStatus);\r\n    }\r\n\r\n    function startVotingSession (uint256 roomId) public  {\r\n        require(RoomList[roomId].roomOwner == msg.sender);\r\n        WorkflowStatus previous = RoomList[roomId].status;\r\n        WorkflowStatus newStatus = WorkflowStatus.VotingSessionStarted;\r\n        RoomList[roomId].status = newStatus;\r\n        emit VotingSessionStarted  ();\r\n        emit  WorkflowStatusChange (previous, newStatus);\r\n    }\r\n\r\n    function endVotingSession (uint256 roomId) public  {\r\n        require(RoomList[roomId].roomOwner == msg.sender);\r\n        WorkflowStatus previous = RoomList[roomId].status;\r\n        WorkflowStatus newStatus = WorkflowStatus.VotingSessionEnded;\r\n        RoomList[roomId].status = newStatus;\r\n        emit VotingSessionEnded  ( );\r\n        emit  WorkflowStatusChange (previous, newStatus);\r\n    }\r\n\r\n\r\n\r\n\r\n    function addProposal ( string  memory  _description ,uint256 roomId) public   {\r\n  \r\n        require ( RoomList[roomId].whiteList [ msg.sender ] .isRegistered ==  true , \"voter not whitelisted\" );\r\n        require (RoomList[roomId].status == WorkflowStatus.ProposalsRegistrationStarted, \"Proposals session has not started\" );\r\n        Proposal memory newProposal = Proposal (RoomList[roomId].proposalIds, msg.sender , _description , 0 );\r\n        RoomList[roomId].proposals[RoomList[roomId].proposalIds] = newProposal;\r\n        RoomList[roomId].proposalIds ++ ;\r\n        emit  ProposalRegistered (RoomList[roomId].proposalIds);\r\n    }\r\n\r\n    function deleteProposal ( uint256 _id ,uint256 roomId ) public  {\r\n        require ( RoomList[roomId].whiteList [ msg.sender ] .isRegistered ==  true , \"voter not whitelisted\" );\r\n        require (RoomList[roomId].proposals[ _id ].owner ==  msg.sender ) ;\r\n        delete RoomList[roomId].proposals[_id];\r\n        emit  ProposalRemoved (_id);\r\n    }\r\n\r\n    function deleteProposalAdmin ( uint256 _id,uint256 roomId  ) public {\r\n        require(RoomList[roomId].roomOwner == msg.sender);\r\n        delete RoomList[roomId].proposals[_id];\r\n    }\r\n\r\n    function vote ( uint256 _id,uint256 roomId  ) public  {\r\n         require ( RoomList[roomId].whiteList [ msg.sender ] .isRegistered ==  true , \"voter not whitelisted\" );\r\n        require (RoomList[roomId].status == WorkflowStatus.VotingSessionStarted);\r\n        require ( RoomList[roomId].whiteList [ msg.sender ] .hasVoted ==  false );\r\n        RoomList[roomId].whiteList[ msg . sender ] .hasVoted =  true ;\r\n        RoomList[roomId].proposals[_id].voteCount ++ ;\r\n         emit Voted ( msg.sender , _id );\r\n    }\r\n   \r\n\r\n     function count(uint256 roomId) public  {\r\n         require(RoomList[roomId].roomOwner == msg.sender);\r\n        require(RoomList[roomId].status == WorkflowStatus.VotingSessionEnded);\r\n        uint8 id;\r\n        uint256 highestCount;\r\n        for (uint256 i = 0; i <= RoomList[roomId].proposalIds; i++) {\r\n            if (highestCount < RoomList[roomId].proposals[i].voteCount) {\r\n                highestCount = RoomList[roomId].proposals[i].voteCount;\r\n                id = RoomList[roomId].proposals[i].id;\r\n            }\r\n        }\r\n        RoomList[roomId].winningProposalId = id;\r\n        RoomList[roomId].status = WorkflowStatus.VotesTallied;\r\n        emit VotesTallied(RoomList[roomId].winningProposalId);   \r\n    } \r\n\r\n}\r\n",
  "sourcePath": "D:\\OpenSource\\BlockChain\\Projects\\Encode\\VotingDapp\\contracts\\Voting.sol",
  "compiler": {
    "name": "solc",
    "version": "0.6.12+commit.27d51765.Emscripten.clang"
  },
  "schemaVersion": "3.4.5",
  "updatedAt": "2022-06-12T18:30:35.467Z",
  "networkType": "ethereum",
  "devdoc": {
    "kind": "dev",
    "methods": {},
    "version": 1
  },
  "userdoc": {
    "kind": "user",
    "methods": {
      "addVoter(address,uint256)": {
        "notice": "Add voter and whitelist"
      }
    },
    "version": 1
  }
}