{
  "contractName": "Voting",
  "abi": [
    {
      "anonymous": false,
      "inputs": [],
      "name": "NewVotingSystem",
      "type": "event"
    },
    {
      "anonymous": false,
      "inputs": [
        {
          "indexed": false,
          "internalType": "uint256",
          "name": "proposalId",
          "type": "uint256"
        }
      ],
      "name": "ProposalRegistered",
      "type": "event"
    },
    {
      "anonymous": false,
      "inputs": [
        {
          "indexed": false,
          "internalType": "uint256",
          "name": "proposalId",
          "type": "uint256"
        }
      ],
      "name": "ProposalRemoved",
      "type": "event"
    },
    {
      "anonymous": false,
      "inputs": [],
      "name": "ProposalsRegistrationEnded",
      "type": "event"
    },
    {
      "anonymous": false,
      "inputs": [],
      "name": "ProposalsRegistrationStarted",
      "type": "event"
    },
    {
      "anonymous": false,
      "inputs": [
        {
          "indexed": false,
          "internalType": "address",
          "name": "voter",
          "type": "address"
        },
        {
          "indexed": false,
          "internalType": "uint256",
          "name": "proposalId",
          "type": "uint256"
        }
      ],
      "name": "Voted",
      "type": "event"
    },
    {
      "anonymous": false,
      "inputs": [
        {
          "indexed": false,
          "internalType": "address",
          "name": "voterAddress",
          "type": "address"
        }
      ],
      "name": "VoterRegistered",
      "type": "event"
    },
    {
      "anonymous": false,
      "inputs": [
        {
          "indexed": false,
          "internalType": "address",
          "name": "_address",
          "type": "address"
        }
      ],
      "name": "VoterRemoved",
      "type": "event"
    },
    {
      "anonymous": false,
      "inputs": [
        {
          "indexed": false,
          "internalType": "uint8",
          "name": "_winningProposals",
          "type": "uint8"
        }
      ],
      "name": "VotesTallied",
      "type": "event"
    },
    {
      "anonymous": false,
      "inputs": [],
      "name": "VotingSessionEnded",
      "type": "event"
    },
    {
      "anonymous": false,
      "inputs": [],
      "name": "VotingSessionStarted",
      "type": "event"
    },
    {
      "anonymous": false,
      "inputs": [
        {
          "indexed": false,
          "internalType": "enum Voting.WorkflowStatus",
          "name": "previousStatus",
          "type": "uint8"
        },
        {
          "indexed": false,
          "internalType": "enum Voting.WorkflowStatus",
          "name": "newStatus",
          "type": "uint8"
        }
      ],
      "name": "WorkflowStatusChange",
      "type": "event"
    },
    {
      "inputs": [
        {
          "internalType": "uint256",
          "name": "",
          "type": "uint256"
        }
      ],
      "name": "RoomList",
      "outputs": [
        {
          "internalType": "uint256",
          "name": "id",
          "type": "uint256"
        },
        {
          "internalType": "bool",
          "name": "isActive",
          "type": "bool"
        },
        {
          "internalType": "address",
          "name": "roomOwner",
          "type": "address"
        },
        {
          "internalType": "enum Voting.WorkflowStatus",
          "name": "status",
          "type": "uint8"
        },
        {
          "internalType": "uint8",
          "name": "proposalIds",
          "type": "uint8"
        },
        {
          "internalType": "uint8",
          "name": "votersCount",
          "type": "uint8"
        },
        {
          "internalType": "uint8",
          "name": "winningProposalId",
          "type": "uint8"
        }
      ],
      "stateMutability": "view",
      "type": "function",
      "constant": true
    },
    {
      "inputs": [],
      "name": "TotalRooms",
      "outputs": [
        {
          "internalType": "uint256[]",
          "name": "",
          "type": "uint256[]"
        }
      ],
      "stateMutability": "view",
      "type": "function",
      "constant": true
    },
    {
      "inputs": [
        {
          "internalType": "uint256",
          "name": "roomId",
          "type": "uint256"
        }
      ],
      "name": "getVoters",
      "outputs": [
        {
          "internalType": "address[]",
          "name": "",
          "type": "address[]"
        }
      ],
      "stateMutability": "view",
      "type": "function",
      "constant": true
    },
    {
      "inputs": [
        {
          "internalType": "uint256",
          "name": "roomId",
          "type": "uint256"
        },
        {
          "internalType": "address",
          "name": "_add",
          "type": "address"
        }
      ],
      "name": "getWhiteList",
      "outputs": [
        {
          "components": [
            {
              "internalType": "bool",
              "name": "isRegistered",
              "type": "bool"
            },
            {
              "internalType": "address",
              "name": "_address",
              "type": "address"
            },
            {
              "internalType": "bool",
              "name": "hasVoted",
              "type": "bool"
            },
            {
              "internalType": "uint256",
              "name": "votedProposalId",
              "type": "uint256"
            }
          ],
          "internalType": "struct Voting.Voter",
          "name": "",
          "type": "tuple"
        }
      ],
      "stateMutability": "view",
      "type": "function",
      "constant": true
    },
    {
      "inputs": [
        {
          "internalType": "uint256",
          "name": "roomId",
          "type": "uint256"
        },
        {
          "internalType": "uint256",
          "name": "ind",
          "type": "uint256"
        }
      ],
      "name": "getProposals",
      "outputs": [
        {
          "components": [
            {
              "internalType": "uint8",
              "name": "id",
              "type": "uint8"
            },
            {
              "internalType": "address",
              "name": "owner",
              "type": "address"
            },
            {
              "internalType": "string",
              "name": "description",
              "type": "string"
            },
            {
              "internalType": "uint256",
              "name": "voteCount",
              "type": "uint256"
            }
          ],
          "internalType": "struct Voting.Proposal",
          "name": "",
          "type": "tuple"
        }
      ],
      "stateMutability": "view",
      "type": "function",
      "constant": true
    },
    {
      "inputs": [
        {
          "internalType": "uint256",
          "name": "roomId",
          "type": "uint256"
        }
      ],
      "name": "getWinningProposal",
      "outputs": [
        {
          "components": [
            {
              "internalType": "uint8",
              "name": "id",
              "type": "uint8"
            },
            {
              "internalType": "address",
              "name": "owner",
              "type": "address"
            },
            {
              "internalType": "string",
              "name": "description",
              "type": "string"
            },
            {
              "internalType": "uint256",
              "name": "voteCount",
              "type": "uint256"
            }
          ],
          "internalType": "struct Voting.Proposal",
          "name": "proposal",
          "type": "tuple"
        }
      ],
      "stateMutability": "view",
      "type": "function",
      "constant": true
    },
    {
      "inputs": [
        {
          "internalType": "uint256",
          "name": "roomId",
          "type": "uint256"
        }
      ],
      "name": "getOwnwer",
      "outputs": [
        {
          "internalType": "address",
          "name": "",
          "type": "address"
        }
      ],
      "stateMutability": "view",
      "type": "function",
      "constant": true
    },
    {
      "inputs": [
        {
          "internalType": "uint256",
          "name": "id_",
          "type": "uint256"
        }
      ],
      "name": "createRooms",
      "outputs": [],
      "stateMutability": "nonpayable",
      "type": "function"
    },
    {
      "inputs": [
        {
          "internalType": "uint256",
          "name": "roomId",
          "type": "uint256"
        }
      ],
      "name": "deleteRoom",
      "outputs": [],
      "stateMutability": "nonpayable",
      "type": "function"
    },
    {
      "inputs": [
        {
          "internalType": "address",
          "name": "_address",
          "type": "address"
        },
        {
          "internalType": "uint256",
          "name": "roomId",
          "type": "uint256"
        }
      ],
      "name": "addVoter",
      "outputs": [],
      "stateMutability": "nonpayable",
      "type": "function"
    },
    {
      "inputs": [
        {
          "internalType": "address",
          "name": "_address",
          "type": "address"
        },
        {
          "internalType": "uint256",
          "name": "roomId",
          "type": "uint256"
        }
      ],
      "name": "deleteVoter",
      "outputs": [],
      "stateMutability": "nonpayable",
      "type": "function"
    },
    {
      "inputs": [
        {
          "internalType": "uint256",
          "name": "roomId",
          "type": "uint256"
        }
      ],
      "name": "resetVotingSession",
      "outputs": [],
      "stateMutability": "nonpayable",
      "type": "function"
    },
    {
      "inputs": [
        {
          "internalType": "uint256",
          "name": "roomId",
          "type": "uint256"
        }
      ],
      "name": "startProposalRegistration",
      "outputs": [],
      "stateMutability": "nonpayable",
      "type": "function"
    },
    {
      "inputs": [
        {
          "internalType": "uint256",
          "name": "roomId",
          "type": "uint256"
        }
      ],
      "name": "endProposalRegistration",
      "outputs": [],
      "stateMutability": "nonpayable",
      "type": "function"
    },
    {
      "inputs": [
        {
          "internalType": "uint256",
          "name": "roomId",
          "type": "uint256"
        }
      ],
      "name": "startVotingSession",
      "outputs": [],
      "stateMutability": "nonpayable",
      "type": "function"
    },
    {
      "inputs": [
        {
          "internalType": "uint256",
          "name": "roomId",
          "type": "uint256"
        }
      ],
      "name": "endVotingSession",
      "outputs": [],
      "stateMutability": "nonpayable",
      "type": "function"
    },
    {
      "inputs": [
        {
          "internalType": "string",
          "name": "_description",
          "type": "string"
        },
        {
          "internalType": "uint256",
          "name": "roomId",
          "type": "uint256"
        }
      ],
      "name": "addProposal",
      "outputs": [],
      "stateMutability": "nonpayable",
      "type": "function"
    },
    {
      "inputs": [
        {
          "internalType": "uint256",
          "name": "_id",
          "type": "uint256"
        },
        {
          "internalType": "uint256",
          "name": "roomId",
          "type": "uint256"
        }
      ],
      "name": "deleteProposal",
      "outputs": [],
      "stateMutability": "nonpayable",
      "type": "function"
    },
    {
      "inputs": [
        {
          "internalType": "uint256",
          "name": "_id",
          "type": "uint256"
        },
        {
          "internalType": "uint256",
          "name": "roomId",
          "type": "uint256"
        }
      ],
      "name": "deleteProposalAdmin",
      "outputs": [],
      "stateMutability": "nonpayable",
      "type": "function"
    },
    {
      "inputs": [
        {
          "internalType": "uint256",
          "name": "_id",
          "type": "uint256"
        },
        {
          "internalType": "uint256",
          "name": "roomId",
          "type": "uint256"
        }
      ],
      "name": "vote",
      "outputs": [],
      "stateMutability": "nonpayable",
      "type": "function"
    },
    {
      "inputs": [
        {
          "internalType": "uint256",
          "name": "roomId",
          "type": "uint256"
        }
      ],
      "name": "count",
      "outputs": [],
      "stateMutability": "nonpayable",
      "type": "function"
    }
  ],
  "bytecode": "0x608060405234801561001057600080fd5b50612d2a806100206000396000f3fe608060405234801561001057600080fd5b50600436106101375760003560e01c806386b646f2116100b8578063b384abef1161007c578063b384abef1461034c578063b9f05f2f14610368578063c208abdc14610384578063db5f1181146103a0578063ea9815a1146103bc578063f545be7b146103d857610137565b806386b646f2146102aa5780638819d290146102da57806394d2545c146102f65780639980a55a14610314578063afe16d891461033057610137565b80633b3546c8116100ff5780633b3546c81461020a5780633eb8031c146102265780634e114b5a146102425780635e3b43651461025e578063682b71001461028e57610137565b806305bcd6ef1461013c5780630820e2291461016c578063181931e9146101a2578063292ca166146101be57806335bb3d30146101ee575b600080fd5b6101566004803603810190610151919061251e565b610408565b60405161016391906129d1565b60405180910390f35b610186600480360381019061018191906124f5565b61050b565b6040516101999796959493929190612a07565b60405180910390f35b6101bc60048036038101906101b791906124f5565b6105ae565b005b6101d860048036038101906101d391906124f5565b610792565b6040516101e591906129af565b60405180910390f35b610208600480360381019061020391906124f5565b610916565b005b610224600480360381019061021f91906124f5565b610a50565b005b610240600480360381019061023b919061255a565b610c9c565b005b61025c60048036038101906102579190612465565b610e7d565b005b6102786004803603810190610273919061255a565b611017565b60405161028591906129af565b60405180910390f35b6102a860048036038101906102a391906124f5565b611177565b005b6102c460048036038101906102bf91906124f5565b611215565b6040516102d19190612902565b60405180910390f35b6102f460048036038101906102ef919061255a565b6112b8565b005b6102fe6113a5565b60405161030b9190612924565b60405180910390f35b61032e600480360381019061032991906124f5565b6113fd565b005b61034a600480360381019061034591906124f5565b611537565b005b6103666004803603810190610361919061255a565b611671565b005b610382600480360381019061037d9190612465565b6118b6565b005b61039e600480360381019061039991906124a1565b611b8e565b005b6103ba60048036038101906103b591906124f5565b611e9a565b005b6103d660048036038101906103d191906124f5565b611fd0565b005b6103f260048036038101906103ed91906124f5565b61210a565b6040516103ff91906128be565b60405180910390f35b610410612149565b60008084815260200190815260200160002060040160008373ffffffffffffffffffffffffffffffffffffffff1673ffffffffffffffffffffffffffffffffffffffff1681526020019081526020016000206040518060800160405290816000820160009054906101000a900460ff161515151581526020016000820160019054906101000a900473ffffffffffffffffffffffffffffffffffffffff1673ffffffffffffffffffffffffffffffffffffffff1673ffffffffffffffffffffffffffffffffffffffff1681526020016000820160159054906101000a900460ff16151515158152602001600182015481525050905092915050565b60006020528060005260406000206000915090508060000154908060010160009054906101000a900460ff16908060010160019054906101000a900473ffffffffffffffffffffffffffffffffffffffff16908060030160009054906101000a900460ff16908060060160009054906101000a900460ff16908060060160019054906101000a900460ff16908060060160029054906101000a900460ff16905087565b6105b661218b565b8181600001818152505033816040019073ffffffffffffffffffffffffffffffffffffffff16908173ffffffffffffffffffffffffffffffffffffffff16815250506001816020019015159081151581525050806000808481526020019081526020016000206000820151816000015560208201518160010160006101000a81548160ff02191690831515021790555060408201518160010160016101000a81548173ffffffffffffffffffffffffffffffffffffffff021916908373ffffffffffffffffffffffffffffffffffffffff16021790555060608201518160020190805190602001906106a99291906121fc565b5060808201518160030160006101000a81548160ff021916908360058111156106ce57fe5b021790555060a08201518160060160006101000a81548160ff021916908360ff16021790555060c08201518160060160016101000a81548160ff021916908360ff16021790555060e08201518160060160026101000a81548160ff021916908360ff16021790555090505060018290806001815401808255809150506001900390600052602060002001600090919091909150557f28c5e727295d809da653948416bdc4fe30913878a5f1332ded39bc4730d10c5660405160405180910390a15050565b61079a612286565b600080838152602001908152602001600020600501600080600085815260200190815260200160002060060160029054906101000a900460ff1660ff1681526020019081526020016000206040518060800160405290816000820160009054906101000a900460ff1660ff1660ff1681526020016000820160019054906101000a900473ffffffffffffffffffffffffffffffffffffffff1673ffffffffffffffffffffffffffffffffffffffff1673ffffffffffffffffffffffffffffffffffffffff168152602001600182018054600181600116156101000203166002900480601f0160208091040260200160405190810160405280929190818152602001828054600181600116156101000203166002900480156108fc5780601f106108d1576101008083540402835291602001916108fc565b820191906000526020600020905b8154815290600101906020018083116108df57829003601f168201915b505050505081526020016002820154815250509050919050565b3373ffffffffffffffffffffffffffffffffffffffff1660008083815260200190815260200160002060010160019054906101000a900473ffffffffffffffffffffffffffffffffffffffff1673ffffffffffffffffffffffffffffffffffffffff161461098357600080fd5b600080600083815260200190815260200160002060030160009054906101000a900460ff1690506000600490508060008085815260200190815260200160002060030160006101000a81548160ff021916908360058111156109e157fe5b02179055507fc379d349a6301baf50fb2f98d829f4ae10b1cdb7c66f4e4d8117302df7b8cd4c60405160405180910390a17f0a97a4ee45751e2abf3e4fc8946939630b11b371ea8ae39ccdc3056e98f5cc3f8282604051610a43929190612946565b60405180910390a1505050565b3373ffffffffffffffffffffffffffffffffffffffff1660008083815260200190815260200160002060010160019054906101000a900473ffffffffffffffffffffffffffffffffffffffff1673ffffffffffffffffffffffffffffffffffffffff1614610abd57600080fd5b60046005811115610aca57fe5b60008083815260200190815260200160002060030160009054906101000a900460ff166005811115610af857fe5b14610b0257600080fd5b60008060005b60008085815260200190815260200160002060060160009054906101000a900460ff1660ff168111610bd857600080858152602001908152602001600020600501600082815260200190815260200160002060020154821015610bcb576000808581526020019081526020016000206005016000828152602001908152602001600020600201549150600080858152602001908152602001600020600501600082815260200190815260200160002060000160009054906101000a900460ff1692505b8080600101915050610b08565b508160008085815260200190815260200160002060060160026101000a81548160ff021916908360ff160217905550600560008085815260200190815260200160002060030160006101000a81548160ff02191690836005811115610c3957fe5b02179055507f7c75ab0a0bf35a72ab671eb9c501a330c5572c09ecdc660fcf5564e5abaf010760008085815260200190815260200160002060060160029054906101000a900460ff16604051610c8f9190612a91565b60405180910390a1505050565b6001151560008083815260200190815260200160002060040160003373ffffffffffffffffffffffffffffffffffffffff1673ffffffffffffffffffffffffffffffffffffffff16815260200190815260200160002060000160009054906101000a900460ff16151514610d45576040517f08c379a0000000000000000000000000000000000000000000000000000000008152600401610d3c9061296f565b60405180910390fd5b3373ffffffffffffffffffffffffffffffffffffffff16600080838152602001908152602001600020600501600084815260200190815260200160002060000160019054906101000a900473ffffffffffffffffffffffffffffffffffffffff1673ffffffffffffffffffffffffffffffffffffffff1614610dc657600080fd5b6000808281526020019081526020016000206005016000838152602001908152602001600020600080820160006101000a81549060ff02191690556000820160016101000a81549073ffffffffffffffffffffffffffffffffffffffff0219169055600182016000610e3891906122c7565b600282016000905550507fd412ca680e6dcd7bc731a6c8d9ad74bea65b8d0dd85d47d29377d99c53326cf782604051610e7191906129ec565b60405180910390a15050565b3373ffffffffffffffffffffffffffffffffffffffff1660008083815260200190815260200160002060010160019054906101000a900473ffffffffffffffffffffffffffffffffffffffff1673ffffffffffffffffffffffffffffffffffffffff1614610eea57600080fd5b60008082815260200190815260200160002060040160008373ffffffffffffffffffffffffffffffffffffffff1673ffffffffffffffffffffffffffffffffffffffff168152602001908152602001600020600080820160006101000a81549060ff02191690556000820160016101000a81549073ffffffffffffffffffffffffffffffffffffffff02191690556000820160156101000a81549060ff021916905560018201600090555050600080828152602001908152602001600020600601600181819054906101000a900460ff16809291906001900391906101000a81548160ff021916908360ff160217905550507fa14a79af012d1756818f9bd59ccfc9ad185a71df86b9392d9059d9e6faf6d6448260405161100b91906128be565b60405180910390a15050565b61101f612286565b60008084815260200190815260200160002060050160008381526020019081526020016000206040518060800160405290816000820160009054906101000a900460ff1660ff1660ff1681526020016000820160019054906101000a900473ffffffffffffffffffffffffffffffffffffffff1673ffffffffffffffffffffffffffffffffffffffff1673ffffffffffffffffffffffffffffffffffffffff168152602001600182018054600181600116156101000203166002900480601f01602080910402602001604051908101604052809291908181526020018280546001816001161561010002031660029004801561115c5780601f106111315761010080835404028352916020019161115c565b820191906000526020600020905b81548152906001019060200180831161113f57829003601f168201915b50505050508152602001600282015481525050905092915050565b3373ffffffffffffffffffffffffffffffffffffffff1660008083815260200190815260200160002060010160019054906101000a900473ffffffffffffffffffffffffffffffffffffffff1673ffffffffffffffffffffffffffffffffffffffff16146111e457600080fd5b600080600083815260200190815260200160002060010160006101000a81548160ff02191690831515021790555050565b60606000808381526020019081526020016000206002018054806020026020016040519081016040528092919081815260200182805480156112ac57602002820191906000526020600020905b8160009054906101000a900473ffffffffffffffffffffffffffffffffffffffff1673ffffffffffffffffffffffffffffffffffffffff1681526020019060010190808311611262575b50505050509050919050565b3373ffffffffffffffffffffffffffffffffffffffff1660008083815260200190815260200160002060010160019054906101000a900473ffffffffffffffffffffffffffffffffffffffff1673ffffffffffffffffffffffffffffffffffffffff161461132557600080fd5b6000808281526020019081526020016000206005016000838152602001908152602001600020600080820160006101000a81549060ff02191690556000820160016101000a81549073ffffffffffffffffffffffffffffffffffffffff021916905560018201600061139791906122c7565b600282016000905550505050565b606060018054806020026020016040519081016040528092919081815260200182805480156113f357602002820191906000526020600020905b8154815260200190600101908083116113df575b5050505050905090565b3373ffffffffffffffffffffffffffffffffffffffff1660008083815260200190815260200160002060010160019054906101000a900473ffffffffffffffffffffffffffffffffffffffff1673ffffffffffffffffffffffffffffffffffffffff161461146a57600080fd5b600080600083815260200190815260200160002060030160009054906101000a900460ff1690506000600390508060008085815260200190815260200160002060030160006101000a81548160ff021916908360058111156114c857fe5b02179055507f1b8e19a458c1bcd88553332c518cc5c4e2d5793e712ee766d4f1c14f672ef1f560405160405180910390a17f0a97a4ee45751e2abf3e4fc8946939630b11b371ea8ae39ccdc3056e98f5cc3f828260405161152a929190612946565b60405180910390a1505050565b3373ffffffffffffffffffffffffffffffffffffffff1660008083815260200190815260200160002060010160019054906101000a900473ffffffffffffffffffffffffffffffffffffffff1673ffffffffffffffffffffffffffffffffffffffff16146115a457600080fd5b600080600083815260200190815260200160002060030160009054906101000a900460ff1690506000600290508060008085815260200190815260200160002060030160006101000a81548160ff0219169083600581111561160257fe5b02179055507f240cb87b2e4df4c318e72bd714d45a9cad60249e883ff56b1fffd83a4595a8fa60405160405180910390a17f0a97a4ee45751e2abf3e4fc8946939630b11b371ea8ae39ccdc3056e98f5cc3f8282604051611664929190612946565b60405180910390a1505050565b6001151560008083815260200190815260200160002060040160003373ffffffffffffffffffffffffffffffffffffffff1673ffffffffffffffffffffffffffffffffffffffff16815260200190815260200160002060000160009054906101000a900460ff1615151461171a576040517f08c379a00000000000000000000000000000000000000000000000000000000081526004016117119061296f565b60405180910390fd5b6003600581111561172757fe5b60008083815260200190815260200160002060030160009054906101000a900460ff16600581111561175557fe5b1461175f57600080fd5b6000151560008083815260200190815260200160002060040160003373ffffffffffffffffffffffffffffffffffffffff1673ffffffffffffffffffffffffffffffffffffffff16815260200190815260200160002060000160159054906101000a900460ff161515146117d257600080fd5b600160008083815260200190815260200160002060040160003373ffffffffffffffffffffffffffffffffffffffff1673ffffffffffffffffffffffffffffffffffffffff16815260200190815260200160002060000160156101000a81548160ff0219169083151502179055506000808281526020019081526020016000206005016000838152602001908152602001600020600201600081548092919060010191905055507f4d99b957a2bc29a30ebd96a7be8e68fe50a3c701db28a91436490b7d53870ca433836040516118aa9291906128d9565b60405180910390a15050565b3373ffffffffffffffffffffffffffffffffffffffff1660008083815260200190815260200160002060010160019054906101000a900473ffffffffffffffffffffffffffffffffffffffff1673ffffffffffffffffffffffffffffffffffffffff161461192357600080fd5b6000600581111561193057fe5b60008083815260200190815260200160002060030160009054906101000a900460ff16600581111561195e57fe5b1461196857600080fd5b611970612149565b60405180608001604052806001151581526020018473ffffffffffffffffffffffffffffffffffffffff168152602001600015158152602001600081525090508060008084815260200190815260200160002060040160008573ffffffffffffffffffffffffffffffffffffffff1673ffffffffffffffffffffffffffffffffffffffff16815260200190815260200160002060008201518160000160006101000a81548160ff02191690831515021790555060208201518160000160016101000a81548173ffffffffffffffffffffffffffffffffffffffff021916908373ffffffffffffffffffffffffffffffffffffffff16021790555060408201518160000160156101000a81548160ff02191690831515021790555060608201518160010155905050600080838152602001908152602001600020600201839080600181540180825580915050600190039060005260206000200160009091909190916101000a81548173ffffffffffffffffffffffffffffffffffffffff021916908373ffffffffffffffffffffffffffffffffffffffff160217905550600080838152602001908152602001600020600601600181819054906101000a900460ff168092919060010191906101000a81548160ff021916908360ff160217905550507fb6be2187d059cc2a55fe29e0e503b566e1e0f8c8780096e185429350acffd3dd83604051611b8191906128be565b60405180910390a1505050565b6001151560008083815260200190815260200160002060040160003373ffffffffffffffffffffffffffffffffffffffff1673ffffffffffffffffffffffffffffffffffffffff16815260200190815260200160002060000160009054906101000a900460ff16151514611c37576040517f08c379a0000000000000000000000000000000000000000000000000000000008152600401611c2e9061296f565b60405180910390fd5b60016005811115611c4457fe5b60008083815260200190815260200160002060030160009054906101000a900460ff166005811115611c7257fe5b14611cb2576040517f08c379a0000000000000000000000000000000000000000000000000000000008152600401611ca99061298f565b60405180910390fd5b611cba612286565b604051806080016040528060008085815260200190815260200160002060060160009054906101000a900460ff1660ff1681526020013373ffffffffffffffffffffffffffffffffffffffff1681526020018481526020016000815250905080600080848152602001908152602001600020600501600080600086815260200190815260200160002060060160009054906101000a900460ff1660ff16815260200190815260200160002060008201518160000160006101000a81548160ff021916908360ff16021790555060208201518160000160016101000a81548173ffffffffffffffffffffffffffffffffffffffff021916908373ffffffffffffffffffffffffffffffffffffffff1602179055506040820151816001019080519060200190611de992919061230f565b5060608201518160020155905050600080838152602001908152602001600020600601600081819054906101000a900460ff168092919060010191906101000a81548160ff021916908360ff160217905550507f92e393e9b54e2f801d3ea4beb0c5e71a21cc34a5d34b77d0fb8a3aa1650dc18f60008084815260200190815260200160002060060160009054906101000a900460ff16604051611e8d9190612a76565b60405180910390a1505050565b3373ffffffffffffffffffffffffffffffffffffffff1660008083815260200190815260200160002060010160019054906101000a900473ffffffffffffffffffffffffffffffffffffffff1673ffffffffffffffffffffffffffffffffffffffff1614611f0757600080fd5b600080600083815260200190815260200160002060030160009054906101000a900460ff16905060008060008085815260200190815260200160002060030160006101000a81548160ff02191690836005811115611f6157fe5b02179055507f28c5e727295d809da653948416bdc4fe30913878a5f1332ded39bc4730d10c5660405160405180910390a17f0a97a4ee45751e2abf3e4fc8946939630b11b371ea8ae39ccdc3056e98f5cc3f8282604051611fc3929190612946565b60405180910390a1505050565b3373ffffffffffffffffffffffffffffffffffffffff1660008083815260200190815260200160002060010160019054906101000a900473ffffffffffffffffffffffffffffffffffffffff1673ffffffffffffffffffffffffffffffffffffffff161461203d57600080fd5b600080600083815260200190815260200160002060030160009054906101000a900460ff1690506000600190508060008085815260200190815260200160002060030160006101000a81548160ff0219169083600581111561209b57fe5b02179055507f344c25562921d075a298d34b6dd1fd00d36ff293974539dfd4a8c625d9f0064c60405160405180910390a17f0a97a4ee45751e2abf3e4fc8946939630b11b371ea8ae39ccdc3056e98f5cc3f82826040516120fd929190612946565b60405180910390a1505050565b600080600083815260200190815260200160002060010160019054906101000a900473ffffffffffffffffffffffffffffffffffffffff169050919050565b6040518060800160405280600015158152602001600073ffffffffffffffffffffffffffffffffffffffff168152602001600015158152602001600081525090565b60405180610100016040528060008152602001600015158152602001600073ffffffffffffffffffffffffffffffffffffffff16815260200160608152602001600060058111156121d857fe5b8152602001600060ff168152602001600060ff168152602001600060ff1681525090565b828054828255906000526020600020908101928215612275579160200282015b828111156122745782518260006101000a81548173ffffffffffffffffffffffffffffffffffffffff021916908373ffffffffffffffffffffffffffffffffffffffff1602179055509160200191906001019061221c565b5b509050612282919061238f565b5090565b6040518060800160405280600060ff168152602001600073ffffffffffffffffffffffffffffffffffffffff16815260200160608152602001600081525090565b50805460018160011615610100020316600290046000825580601f106122ed575061230c565b601f01602090049060005260206000209081019061230b91906123ca565b5b50565b828054600181600116156101000203166002900490600052602060002090601f016020900481019282601f1061235057805160ff191683800117855561237e565b8280016001018555821561237e579182015b8281111561237d578251825591602001919060010190612362565b5b50905061238b91906123ca565b5090565b5b808211156123c657600081816101000a81549073ffffffffffffffffffffffffffffffffffffffff021916905550600101612390565b5090565b5b808211156123e35760008160009055506001016123cb565b5090565b6000813590506123f681612cc6565b92915050565b600082601f83011261240d57600080fd5b813561242061241b82612ad9565b612aac565b9150808252602083016020830185838301111561243c57600080fd5b612447838284612c66565b50505092915050565b60008135905061245f81612cdd565b92915050565b6000806040838503121561247857600080fd5b6000612486858286016123e7565b925050602061249785828601612450565b9150509250929050565b600080604083850312156124b457600080fd5b600083013567ffffffffffffffff8111156124ce57600080fd5b6124da858286016123fc565b92505060206124eb85828601612450565b9150509250929050565b60006020828403121561250757600080fd5b600061251584828501612450565b91505092915050565b6000806040838503121561253157600080fd5b600061253f85828601612450565b9250506020612550858286016123e7565b9150509250929050565b6000806040838503121561256d57600080fd5b600061257b85828601612450565b925050602061258c85828601612450565b9150509250929050565b60006125a283836125d5565b60208301905092915050565b60006125ba8383612873565b60208301905092915050565b6125cf81612c0c565b82525050565b6125de81612ba4565b82525050565b6125ed81612ba4565b82525050565b60006125fe82612b25565b6126088185612b60565b935061261383612b05565b8060005b8381101561264457815161262b8882612596565b975061263683612b46565b925050600181019050612617565b5085935050505092915050565b600061265c82612b30565b6126668185612b71565b935061267183612b15565b8060005b838110156126a257815161268988826125ae565b975061269483612b53565b925050600181019050612675565b5085935050505092915050565b6126b881612bb6565b82525050565b6126c781612bb6565b82525050565b6126d681612c1e565b82525050565b60006126e782612b3b565b6126f18185612b82565b9350612701818560208601612c75565b61270a81612ca8565b840191505092915050565b6000612722601583612b93565b91507f766f746572206e6f742077686974656c697374656400000000000000000000006000830152602082019050919050565b6000612762602183612b93565b91507f50726f706f73616c732073657373696f6e20686173206e6f742073746172746560008301527f64000000000000000000000000000000000000000000000000000000000000006020830152604082019050919050565b60006080830160008301516127d360008601826128a0565b5060208301516127e660208601826125d5565b50604083015184820360408601526127fe82826126dc565b91505060608301516128136060860182612873565b508091505092915050565b60808201600082015161283460008501826126af565b50602082015161284760208501826125d5565b50604082015161285a60408501826126af565b50606082015161286d6060850182612873565b50505050565b61287c81612bf5565b82525050565b61288b81612bf5565b82525050565b61289a81612c54565b82525050565b6128a981612bff565b82525050565b6128b881612bff565b82525050565b60006020820190506128d360008301846125e4565b92915050565b60006040820190506128ee60008301856125c6565b6128fb6020830184612882565b9392505050565b6000602082019050818103600083015261291c81846125f3565b905092915050565b6000602082019050818103600083015261293e8184612651565b905092915050565b600060408201905061295b60008301856126cd565b61296860208301846126cd565b9392505050565b6000602082019050818103600083015261298881612715565b9050919050565b600060208201905081810360008301526129a881612755565b9050919050565b600060208201905081810360008301526129c981846127bb565b905092915050565b60006080820190506129e6600083018461281e565b92915050565b6000602082019050612a016000830184612882565b92915050565b600060e082019050612a1c600083018a612882565b612a2960208301896126be565b612a3660408301886125e4565b612a4360608301876126cd565b612a5060808301866128af565b612a5d60a08301856128af565b612a6a60c08301846128af565b98975050505050505050565b6000602082019050612a8b6000830184612891565b92915050565b6000602082019050612aa660008301846128af565b92915050565b6000604051905081810181811067ffffffffffffffff82111715612acf57600080fd5b8060405250919050565b600067ffffffffffffffff821115612af057600080fd5b601f19601f8301169050602081019050919050565b6000819050602082019050919050565b6000819050602082019050919050565b600081519050919050565b600081519050919050565b600081519050919050565b6000602082019050919050565b6000602082019050919050565b600082825260208201905092915050565b600082825260208201905092915050565b600082825260208201905092915050565b600082825260208201905092915050565b6000612baf82612bd5565b9050919050565b60008115159050919050565b6000819050612bd082612cb9565b919050565b600073ffffffffffffffffffffffffffffffffffffffff82169050919050565b6000819050919050565b600060ff82169050919050565b6000612c1782612c30565b9050919050565b6000612c2982612bc2565b9050919050565b6000612c3b82612c42565b9050919050565b6000612c4d82612bd5565b9050919050565b6000612c5f82612bff565b9050919050565b82818337600083830152505050565b60005b83811015612c93578082015181840152602081019050612c78565b83811115612ca2576000848401525b50505050565b6000601f19601f8301169050919050565b60068110612cc357fe5b50565b612ccf81612ba4565b8114612cda57600080fd5b50565b612ce681612bf5565b8114612cf157600080fd5b5056fea2646970667358221220346a97248530fdc64483598b8ddcfa265561ce809b02fd2a857e51096178f05a64736f6c634300060c0033",
  "immutableReferences": {},
  "source": "  \r\n///SPDX-License-Identifier: GPL-3.0\r\npragma solidity  ^ 0.6.0 ;\r\npragma experimental ABIEncoderV2;\r\n\r\ncontract  Voting  {\r\n    \r\n    //Voter Struct\r\n    struct Voter {\r\n        bool isRegistered;\r\n        address _address;\r\n        bool hasVoted;\r\n        uint256 votedProposalId;\r\n\r\n    }\r\n    //Proposal Struct\r\n    struct Proposal {\r\n        uint8 id;\r\n        address owner;\r\n        string description;\r\n        uint256 voteCount;\r\n    }\r\n\r\n    enum WorkflowStatus {\r\n        RegisteringVoters,\r\n        ProposalsRegistrationStarted,\r\n        ProposalsRegistrationEnded,\r\n        VotingSessionStarted,\r\n        VotingSessionEnded,\r\n        VotesTallied\r\n    }\r\n\r\n    event NewVotingSystem ();\r\n    event VoterRegistered ( address  voterAddress );\r\n    event VoterRemoved ( address  _address );\r\n    event ProposalsRegistrationStarted ();\r\n    event ProposalsRegistrationEnded ();\r\n    event ProposalRegistered ( uint256  proposalId );\r\n    event ProposalRemoved ( uint256  proposalId );\r\n    event VotingSessionStarted ();\r\n    event VotingSessionEnded ();\r\n    event Voted ( address  voter , uint256  proposalId );\r\n    event VotesTallied ( uint8 _winningProposals  ) ;\r\n    event WorkflowStatusChange (\r\n        WorkflowStatus previousStatus,\r\n        WorkflowStatus newStatus\r\n    );\r\n\r\n    //Room Structure\r\n\r\n\r\n    struct Room{\r\n        uint256 id;\r\n        bool isActive;\r\n        address roomOwner;\r\n        address [] voters;\r\n        WorkflowStatus  status;\r\n        mapping (address => Voter)  whiteList;\r\n        mapping (uint256  => Proposal) proposals;\r\n        uint8   proposalIds;\r\n        uint8   votersCount;\r\n        uint8   winningProposalId;\r\n\r\n    }\r\n    \r\n     \r\n        mapping(uint256 => Room) public RoomList;\r\n        uint256[]  totalRooms;    \r\n    \r\n      function TotalRooms () public  view  returns ( uint256 [] memory) {\r\n        return totalRooms;\r\n    }\r\n\r\n    function getVoters (uint256 roomId) public  view  returns ( address [] memory ) {\r\n        return RoomList[roomId].voters;\r\n    }\r\n    function getWhiteList (uint256 roomId,address _add) public  view  returns ( Voter memory ) {\r\n        return RoomList[roomId].whiteList[_add];\r\n    }\r\n     function getProposals (uint256 roomId,uint256 ind) public  view  returns ( Proposal memory ) {\r\n        return RoomList[roomId].proposals[ind];\r\n    }\r\n\r\n    function getWinningProposal (uint256 roomId) public  view  returns (Proposal memory  proposal ){\r\n\r\n        return RoomList[roomId].proposals[RoomList[roomId].winningProposalId];\r\n    }\r\n    function getOwnwer (uint256 roomId) public  view  returns ( address ) {\r\n        return RoomList[roomId].roomOwner;\r\n    }\r\n    //Create Rooms\r\n      function createRooms(uint256 id_) public{\r\n        Room memory newRoom;\r\n        newRoom.id = id_;\r\n        newRoom.roomOwner = msg.sender;\r\n        newRoom.isActive = true;\r\n        RoomList[id_] = newRoom;\r\n        totalRooms.push(id_); \r\n        emit NewVotingSystem  ();\r\n\r\n\r\n    }\r\n    //Delete Rooms\r\n    function deleteRoom(uint256 roomId)public {\r\n        require(RoomList[roomId].roomOwner == msg.sender);\r\n        RoomList[roomId].isActive = false;\r\n    }\r\n        \r\n    ///Add voter and whitelist\r\n    function addVoter (address _address,uint256 roomId ) public   {\r\n        require(RoomList[roomId].roomOwner == msg.sender);\r\n        require (RoomList[roomId].status == WorkflowStatus.RegisteringVoters);\r\n        Voter memory newVoter =  Voter ( true , _address, false , 0 );\r\n        RoomList[roomId].whiteList[_address] = newVoter;\r\n        RoomList[roomId].voters. push (_address);\r\n        RoomList[roomId].votersCount ++ ;\r\n        emit  VoterRegistered (_address);\r\n    }\r\n    //delete voter\r\n    function deleteVoter ( address _address,uint256 roomId ) public   {\r\n        require(RoomList[roomId].roomOwner == msg.sender);\r\n        delete RoomList[roomId].whiteList[_address];\r\n        RoomList[roomId].votersCount -- ;\r\n        emit  VoterRemoved (_address);\r\n    }\r\n\r\n    function resetVotingSession (uint256 roomId) public  {\r\n      require(RoomList[roomId].roomOwner == msg.sender);\r\n        WorkflowStatus previous = RoomList[roomId].status;\r\n        WorkflowStatus newStatus = WorkflowStatus.RegisteringVoters;\r\n        RoomList[roomId].status = newStatus;\r\n        emit NewVotingSystem  ( );\r\n        emit  WorkflowStatusChange (previous, newStatus);\r\n    }\r\n\r\n\r\n    function startProposalRegistration (uint256 roomId) public  {\r\n        require(RoomList[roomId].roomOwner == msg.sender);\r\n        WorkflowStatus previous = RoomList[roomId].status;\r\n        WorkflowStatus newStatus = WorkflowStatus.ProposalsRegistrationStarted;\r\n        RoomList[roomId].status = newStatus;\r\n        emit  ProposalsRegistrationStarted ();\r\n        emit  WorkflowStatusChange (previous, newStatus);\r\n    }\r\n\r\n    function endProposalRegistration (uint256 roomId) public  {\r\n        require(RoomList[roomId].roomOwner == msg.sender);\r\n        WorkflowStatus previous = RoomList[roomId].status;\r\n        WorkflowStatus newStatus = WorkflowStatus.ProposalsRegistrationEnded;\r\n         RoomList[roomId].status = newStatus;\r\n        emit  ProposalsRegistrationEnded ();\r\n        emit  WorkflowStatusChange (previous, newStatus);\r\n    }\r\n\r\n    function startVotingSession (uint256 roomId) public  {\r\n        require(RoomList[roomId].roomOwner == msg.sender);\r\n        WorkflowStatus previous = RoomList[roomId].status;\r\n        WorkflowStatus newStatus = WorkflowStatus.VotingSessionStarted;\r\n        RoomList[roomId].status = newStatus;\r\n        emit VotingSessionStarted  ();\r\n        emit  WorkflowStatusChange (previous, newStatus);\r\n    }\r\n\r\n    function endVotingSession (uint256 roomId) public  {\r\n        require(RoomList[roomId].roomOwner == msg.sender);\r\n        WorkflowStatus previous = RoomList[roomId].status;\r\n        WorkflowStatus newStatus = WorkflowStatus.VotingSessionEnded;\r\n        RoomList[roomId].status = newStatus;\r\n        emit VotingSessionEnded  ( );\r\n        emit  WorkflowStatusChange (previous, newStatus);\r\n    }\r\n\r\n\r\n\r\n\r\n    function addProposal ( string  memory  _description ,uint256 roomId) public   {\r\n  \r\n        require ( RoomList[roomId].whiteList [ msg.sender ] .isRegistered ==  true , \"voter not whitelisted\" );\r\n        require (RoomList[roomId].status == WorkflowStatus.ProposalsRegistrationStarted, \"Proposals session has not started\" );\r\n        Proposal memory newProposal = Proposal (RoomList[roomId].proposalIds, msg.sender , _description , 0 );\r\n        RoomList[roomId].proposals[RoomList[roomId].proposalIds] = newProposal;\r\n        RoomList[roomId].proposalIds ++ ;\r\n        emit  ProposalRegistered (RoomList[roomId].proposalIds);\r\n    }\r\n\r\n    function deleteProposal ( uint256 _id ,uint256 roomId ) public  {\r\n        require ( RoomList[roomId].whiteList [ msg.sender ] .isRegistered ==  true , \"voter not whitelisted\" );\r\n        require (RoomList[roomId].proposals[ _id ].owner ==  msg.sender ) ;\r\n        delete RoomList[roomId].proposals[_id];\r\n        emit  ProposalRemoved (_id);\r\n    }\r\n\r\n    function deleteProposalAdmin ( uint256 _id,uint256 roomId  ) public {\r\n        require(RoomList[roomId].roomOwner == msg.sender);\r\n        delete RoomList[roomId].proposals[_id];\r\n    }\r\n\r\n    function vote ( uint256 _id,uint256 roomId  ) public  {\r\n         require ( RoomList[roomId].whiteList [ msg.sender ] .isRegistered ==  true , \"voter not whitelisted\" );\r\n        require (RoomList[roomId].status == WorkflowStatus.VotingSessionStarted);\r\n        require ( RoomList[roomId].whiteList [ msg.sender ] .hasVoted ==  false );\r\n        RoomList[roomId].whiteList[ msg . sender ] .hasVoted =  true ;\r\n        RoomList[roomId].proposals[_id].voteCount ++ ;\r\n         emit Voted ( msg.sender , _id );\r\n    }\r\n   \r\n\r\n     function count(uint256 roomId) public  {\r\n         require(RoomList[roomId].roomOwner == msg.sender);\r\n        require(RoomList[roomId].status == WorkflowStatus.VotingSessionEnded);\r\n        uint8 id;\r\n        uint256 highestCount;\r\n        for (uint256 i = 0; i <= RoomList[roomId].proposalIds; i++) {\r\n            if (highestCount < RoomList[roomId].proposals[i].voteCount) {\r\n                highestCount = RoomList[roomId].proposals[i].voteCount;\r\n                id = RoomList[roomId].proposals[i].id;\r\n            }\r\n        }\r\n        RoomList[roomId].winningProposalId = id;\r\n        RoomList[roomId].status = WorkflowStatus.VotesTallied;\r\n        emit VotesTallied(RoomList[roomId].winningProposalId);   \r\n    } \r\n\r\n}\r\n",
  "sourcePath": "D:\\OpenSource\\BlockChain\\Projects\\Encode\\VotingDapp\\contracts\\Voting.sol",
  "compiler": {
    "name": "solc",
    "version": "0.6.12+commit.27d51765.Emscripten.clang"
  },
  "schemaVersion": "3.4.5",
  "updatedAt": "2022-06-13T10:55:22.080Z",
  "networkType": "ethereum",
  "devdoc": {
    "kind": "dev",
    "methods": {},
    "version": 1
  },
  "userdoc": {
    "kind": "user",
    "methods": {
      "addVoter(address,uint256)": {
        "notice": "Add voter and whitelist"
      }
    },
    "version": 1
  }
}