{
  "contractName": "Voting",
  "abi": [
    {
      "anonymous": false,
      "inputs": [],
      "name": "NewVotingSystem",
      "type": "event"
    },
    {
      "anonymous": false,
      "inputs": [
        {
          "indexed": false,
          "internalType": "uint256",
          "name": "proposalId",
          "type": "uint256"
        }
      ],
      "name": "ProposalRegistered",
      "type": "event"
    },
    {
      "anonymous": false,
      "inputs": [
        {
          "indexed": false,
          "internalType": "uint256",
          "name": "proposalId",
          "type": "uint256"
        }
      ],
      "name": "ProposalRemoved",
      "type": "event"
    },
    {
      "anonymous": false,
      "inputs": [],
      "name": "ProposalsRegistrationEnded",
      "type": "event"
    },
    {
      "anonymous": false,
      "inputs": [],
      "name": "ProposalsRegistrationStarted",
      "type": "event"
    },
    {
      "anonymous": false,
      "inputs": [
        {
          "indexed": false,
          "internalType": "address",
          "name": "voter",
          "type": "address"
        },
        {
          "indexed": false,
          "internalType": "uint256",
          "name": "proposalId",
          "type": "uint256"
        }
      ],
      "name": "Voted",
      "type": "event"
    },
    {
      "anonymous": false,
      "inputs": [
        {
          "indexed": false,
          "internalType": "address",
          "name": "voterAddress",
          "type": "address"
        }
      ],
      "name": "VoterRegistered",
      "type": "event"
    },
    {
      "anonymous": false,
      "inputs": [
        {
          "indexed": false,
          "internalType": "address",
          "name": "_address",
          "type": "address"
        }
      ],
      "name": "VoterRemoved",
      "type": "event"
    },
    {
      "anonymous": false,
      "inputs": [
        {
          "indexed": false,
          "internalType": "uint8",
          "name": "_winningProposals",
          "type": "uint8"
        }
      ],
      "name": "VotesTallied",
      "type": "event"
    },
    {
      "anonymous": false,
      "inputs": [],
      "name": "VotingSessionEnded",
      "type": "event"
    },
    {
      "anonymous": false,
      "inputs": [],
      "name": "VotingSessionStarted",
      "type": "event"
    },
    {
      "anonymous": false,
      "inputs": [
        {
          "indexed": false,
          "internalType": "enum Voting.WorkflowStatus",
          "name": "previousStatus",
          "type": "uint8"
        },
        {
          "indexed": false,
          "internalType": "enum Voting.WorkflowStatus",
          "name": "newStatus",
          "type": "uint8"
        }
      ],
      "name": "WorkflowStatusChange",
      "type": "event"
    },
    {
      "inputs": [
        {
          "internalType": "uint256",
          "name": "",
          "type": "uint256"
        }
      ],
      "name": "RoomList",
      "outputs": [
        {
          "internalType": "uint256",
          "name": "id",
          "type": "uint256"
        },
        {
          "internalType": "bool",
          "name": "isActive",
          "type": "bool"
        },
        {
          "internalType": "address",
          "name": "roomOwner",
          "type": "address"
        },
        {
          "internalType": "enum Voting.WorkflowStatus",
          "name": "status",
          "type": "uint8"
        },
        {
          "internalType": "uint8",
          "name": "proposalIds",
          "type": "uint8"
        },
        {
          "internalType": "uint8",
          "name": "votersCount",
          "type": "uint8"
        },
        {
          "internalType": "uint8",
          "name": "winningProposalId",
          "type": "uint8"
        }
      ],
      "stateMutability": "view",
      "type": "function",
      "constant": true
    },
    {
      "inputs": [],
      "name": "TotalRooms",
      "outputs": [
        {
          "internalType": "uint256[]",
          "name": "",
          "type": "uint256[]"
        }
      ],
      "stateMutability": "view",
      "type": "function",
      "constant": true
    },
    {
      "inputs": [
        {
          "internalType": "uint256",
          "name": "roomId",
          "type": "uint256"
        }
      ],
      "name": "getVoters",
      "outputs": [
        {
          "internalType": "address[]",
          "name": "",
          "type": "address[]"
        }
      ],
      "stateMutability": "view",
      "type": "function",
      "constant": true
    },
    {
      "inputs": [
        {
          "internalType": "uint256",
          "name": "roomId",
          "type": "uint256"
        }
      ],
      "name": "getWinningProposal",
      "outputs": [
        {
          "components": [
            {
              "internalType": "uint8",
              "name": "id",
              "type": "uint8"
            },
            {
              "internalType": "address",
              "name": "owner",
              "type": "address"
            },
            {
              "internalType": "string",
              "name": "description",
              "type": "string"
            },
            {
              "internalType": "uint256",
              "name": "voteCount",
              "type": "uint256"
            }
          ],
          "internalType": "struct Voting.Proposal",
          "name": "proposal",
          "type": "tuple"
        }
      ],
      "stateMutability": "view",
      "type": "function",
      "constant": true
    },
    {
      "inputs": [
        {
          "internalType": "uint256",
          "name": "id_",
          "type": "uint256"
        }
      ],
      "name": "createRooms",
      "outputs": [],
      "stateMutability": "nonpayable",
      "type": "function"
    },
    {
      "inputs": [
        {
          "internalType": "uint256",
          "name": "roomId",
          "type": "uint256"
        }
      ],
      "name": "deleteRoom",
      "outputs": [],
      "stateMutability": "nonpayable",
      "type": "function"
    },
    {
      "inputs": [
        {
          "internalType": "address",
          "name": "_address",
          "type": "address"
        },
        {
          "internalType": "uint256",
          "name": "roomId",
          "type": "uint256"
        }
      ],
      "name": "addVoter",
      "outputs": [],
      "stateMutability": "nonpayable",
      "type": "function"
    },
    {
      "inputs": [
        {
          "internalType": "address",
          "name": "_address",
          "type": "address"
        },
        {
          "internalType": "uint256",
          "name": "roomId",
          "type": "uint256"
        }
      ],
      "name": "deleteVoter",
      "outputs": [],
      "stateMutability": "nonpayable",
      "type": "function"
    },
    {
      "inputs": [
        {
          "internalType": "uint256",
          "name": "roomId",
          "type": "uint256"
        }
      ],
      "name": "resetVotingSession",
      "outputs": [],
      "stateMutability": "nonpayable",
      "type": "function"
    },
    {
      "inputs": [
        {
          "internalType": "uint256",
          "name": "roomId",
          "type": "uint256"
        }
      ],
      "name": "startProposalRegistration",
      "outputs": [],
      "stateMutability": "nonpayable",
      "type": "function"
    },
    {
      "inputs": [
        {
          "internalType": "uint256",
          "name": "roomId",
          "type": "uint256"
        }
      ],
      "name": "endProposalRegistration",
      "outputs": [],
      "stateMutability": "nonpayable",
      "type": "function"
    },
    {
      "inputs": [
        {
          "internalType": "uint256",
          "name": "roomId",
          "type": "uint256"
        }
      ],
      "name": "startVotingSession",
      "outputs": [],
      "stateMutability": "nonpayable",
      "type": "function"
    },
    {
      "inputs": [
        {
          "internalType": "uint256",
          "name": "roomId",
          "type": "uint256"
        }
      ],
      "name": "endVotingSession",
      "outputs": [],
      "stateMutability": "nonpayable",
      "type": "function"
    },
    {
      "inputs": [
        {
          "internalType": "string",
          "name": "_description",
          "type": "string"
        },
        {
          "internalType": "uint256",
          "name": "roomId",
          "type": "uint256"
        }
      ],
      "name": "addProposal",
      "outputs": [],
      "stateMutability": "nonpayable",
      "type": "function"
    },
    {
      "inputs": [
        {
          "internalType": "uint256",
          "name": "_id",
          "type": "uint256"
        },
        {
          "internalType": "uint256",
          "name": "roomId",
          "type": "uint256"
        }
      ],
      "name": "deleteProposal",
      "outputs": [],
      "stateMutability": "nonpayable",
      "type": "function"
    },
    {
      "inputs": [
        {
          "internalType": "uint256",
          "name": "_id",
          "type": "uint256"
        },
        {
          "internalType": "uint256",
          "name": "roomId",
          "type": "uint256"
        }
      ],
      "name": "deleteProposalAdmin",
      "outputs": [],
      "stateMutability": "nonpayable",
      "type": "function"
    },
    {
      "inputs": [
        {
          "internalType": "uint256",
          "name": "_id",
          "type": "uint256"
        },
        {
          "internalType": "uint256",
          "name": "roomId",
          "type": "uint256"
        }
      ],
      "name": "vote",
      "outputs": [],
      "stateMutability": "nonpayable",
      "type": "function"
    },
    {
      "inputs": [
        {
          "internalType": "uint256",
          "name": "roomId",
          "type": "uint256"
        }
      ],
      "name": "count",
      "outputs": [],
      "stateMutability": "nonpayable",
      "type": "function"
    }
  ],
  "bytecode": "0x608060405234801561001057600080fd5b5061291c806100206000396000f3fe608060405234801561001057600080fd5b50600436106101165760003560e01c80638819d290116100a2578063b384abef11610071578063b384abef146102cb578063b9f05f2f146102e7578063c208abdc14610303578063db5f11811461031f578063ea9815a11461033b57610116565b80638819d2901461025957806394d2545c146102755780639980a55a14610293578063afe16d89146102af57610116565b80633b3546c8116100e95780633b3546c8146101b95780633eb8031c146101d55780634e114b5a146101f1578063682b71001461020d57806386b646f21461022957610116565b80630820e2291461011b578063181931e914610151578063292ca1661461016d57806335bb3d301461019d575b600080fd5b610135600480360381019061013091906121a2565b610357565b60405161014897969594939291906125f9565b60405180910390f35b61016b600480360381019061016691906121a2565b6103fa565b005b610187600480360381019061018291906121a2565b6105de565b60405161019491906125bc565b60405180910390f35b6101b760048036038101906101b291906121a2565b610762565b005b6101d360048036038101906101ce91906121a2565b61089c565b005b6101ef60048036038101906101ea91906121cb565b610ae8565b005b61020b60048036038101906102069190612112565b610cc9565b005b610227600480360381019061022291906121a2565b610e63565b005b610243600480360381019061023e91906121a2565b610f01565b604051610250919061250f565b60405180910390f35b610273600480360381019061026e91906121cb565b610fa4565b005b61027d611091565b60405161028a9190612531565b60405180910390f35b6102ad60048036038101906102a891906121a2565b6110e9565b005b6102c960048036038101906102c491906121a2565b611223565b005b6102e560048036038101906102e091906121cb565b61135d565b005b61030160048036038101906102fc9190612112565b6115a2565b005b61031d6004803603810190610318919061214e565b61187a565b005b610339600480360381019061033491906121a2565b611b86565b005b610355600480360381019061035091906121a2565b611cbc565b005b60006020528060005260406000206000915090508060000154908060010160009054906101000a900460ff16908060010160019054906101000a900473ffffffffffffffffffffffffffffffffffffffff16908060030160009054906101000a900460ff16908060060160009054906101000a900460ff16908060060160019054906101000a900460ff16908060060160029054906101000a900460ff16905087565b610402611df6565b8181600001818152505033816040019073ffffffffffffffffffffffffffffffffffffffff16908173ffffffffffffffffffffffffffffffffffffffff16815250506001816020019015159081151581525050806000808481526020019081526020016000206000820151816000015560208201518160010160006101000a81548160ff02191690831515021790555060408201518160010160016101000a81548173ffffffffffffffffffffffffffffffffffffffff021916908373ffffffffffffffffffffffffffffffffffffffff16021790555060608201518160020190805190602001906104f5929190611e67565b5060808201518160030160006101000a81548160ff0219169083600581111561051a57fe5b021790555060a08201518160060160006101000a81548160ff021916908360ff16021790555060c08201518160060160016101000a81548160ff021916908360ff16021790555060e08201518160060160026101000a81548160ff021916908360ff16021790555090505060018290806001815401808255809150506001900390600052602060002001600090919091909150557f28c5e727295d809da653948416bdc4fe30913878a5f1332ded39bc4730d10c5660405160405180910390a15050565b6105e6611ef1565b600080838152602001908152602001600020600501600080600085815260200190815260200160002060060160029054906101000a900460ff1660ff1681526020019081526020016000206040518060800160405290816000820160009054906101000a900460ff1660ff1660ff1681526020016000820160019054906101000a900473ffffffffffffffffffffffffffffffffffffffff1673ffffffffffffffffffffffffffffffffffffffff1673ffffffffffffffffffffffffffffffffffffffff168152602001600182018054600181600116156101000203166002900480601f0160208091040260200160405190810160405280929190818152602001828054600181600116156101000203166002900480156107485780601f1061071d57610100808354040283529160200191610748565b820191906000526020600020905b81548152906001019060200180831161072b57829003601f168201915b505050505081526020016002820154815250509050919050565b3373ffffffffffffffffffffffffffffffffffffffff1660008083815260200190815260200160002060010160019054906101000a900473ffffffffffffffffffffffffffffffffffffffff1673ffffffffffffffffffffffffffffffffffffffff16146107cf57600080fd5b600080600083815260200190815260200160002060030160009054906101000a900460ff1690506000600490508060008085815260200190815260200160002060030160006101000a81548160ff0219169083600581111561082d57fe5b02179055507fc379d349a6301baf50fb2f98d829f4ae10b1cdb7c66f4e4d8117302df7b8cd4c60405160405180910390a17f0a97a4ee45751e2abf3e4fc8946939630b11b371ea8ae39ccdc3056e98f5cc3f828260405161088f929190612553565b60405180910390a1505050565b3373ffffffffffffffffffffffffffffffffffffffff1660008083815260200190815260200160002060010160019054906101000a900473ffffffffffffffffffffffffffffffffffffffff1673ffffffffffffffffffffffffffffffffffffffff161461090957600080fd5b6004600581111561091657fe5b60008083815260200190815260200160002060030160009054906101000a900460ff16600581111561094457fe5b1461094e57600080fd5b60008060005b60008085815260200190815260200160002060060160009054906101000a900460ff1660ff168111610a2457600080858152602001908152602001600020600501600082815260200190815260200160002060020154821015610a17576000808581526020019081526020016000206005016000828152602001908152602001600020600201549150600080858152602001908152602001600020600501600082815260200190815260200160002060000160009054906101000a900460ff1692505b8080600101915050610954565b508160008085815260200190815260200160002060060160026101000a81548160ff021916908360ff160217905550600560008085815260200190815260200160002060030160006101000a81548160ff02191690836005811115610a8557fe5b02179055507f7c75ab0a0bf35a72ab671eb9c501a330c5572c09ecdc660fcf5564e5abaf010760008085815260200190815260200160002060060160029054906101000a900460ff16604051610adb9190612683565b60405180910390a1505050565b6001151560008083815260200190815260200160002060040160003373ffffffffffffffffffffffffffffffffffffffff1673ffffffffffffffffffffffffffffffffffffffff16815260200190815260200160002060000160009054906101000a900460ff16151514610b91576040517f08c379a0000000000000000000000000000000000000000000000000000000008152600401610b889061257c565b60405180910390fd5b3373ffffffffffffffffffffffffffffffffffffffff16600080838152602001908152602001600020600501600084815260200190815260200160002060000160019054906101000a900473ffffffffffffffffffffffffffffffffffffffff1673ffffffffffffffffffffffffffffffffffffffff1614610c1257600080fd5b6000808281526020019081526020016000206005016000838152602001908152602001600020600080820160006101000a81549060ff02191690556000820160016101000a81549073ffffffffffffffffffffffffffffffffffffffff0219169055600182016000610c849190611f32565b600282016000905550507fd412ca680e6dcd7bc731a6c8d9ad74bea65b8d0dd85d47d29377d99c53326cf782604051610cbd91906125de565b60405180910390a15050565b3373ffffffffffffffffffffffffffffffffffffffff1660008083815260200190815260200160002060010160019054906101000a900473ffffffffffffffffffffffffffffffffffffffff1673ffffffffffffffffffffffffffffffffffffffff1614610d3657600080fd5b60008082815260200190815260200160002060040160008373ffffffffffffffffffffffffffffffffffffffff1673ffffffffffffffffffffffffffffffffffffffff168152602001908152602001600020600080820160006101000a81549060ff02191690556000820160016101000a81549073ffffffffffffffffffffffffffffffffffffffff02191690556000820160156101000a81549060ff021916905560018201600090555050600080828152602001908152602001600020600601600181819054906101000a900460ff16809291906001900391906101000a81548160ff021916908360ff160217905550507fa14a79af012d1756818f9bd59ccfc9ad185a71df86b9392d9059d9e6faf6d64482604051610e5791906124cb565b60405180910390a15050565b3373ffffffffffffffffffffffffffffffffffffffff1660008083815260200190815260200160002060010160019054906101000a900473ffffffffffffffffffffffffffffffffffffffff1673ffffffffffffffffffffffffffffffffffffffff1614610ed057600080fd5b600080600083815260200190815260200160002060010160006101000a81548160ff02191690831515021790555050565b6060600080838152602001908152602001600020600201805480602002602001604051908101604052809291908181526020018280548015610f9857602002820191906000526020600020905b8160009054906101000a900473ffffffffffffffffffffffffffffffffffffffff1673ffffffffffffffffffffffffffffffffffffffff1681526020019060010190808311610f4e575b50505050509050919050565b3373ffffffffffffffffffffffffffffffffffffffff1660008083815260200190815260200160002060010160019054906101000a900473ffffffffffffffffffffffffffffffffffffffff1673ffffffffffffffffffffffffffffffffffffffff161461101157600080fd5b6000808281526020019081526020016000206005016000838152602001908152602001600020600080820160006101000a81549060ff02191690556000820160016101000a81549073ffffffffffffffffffffffffffffffffffffffff02191690556001820160006110839190611f32565b600282016000905550505050565b606060018054806020026020016040519081016040528092919081815260200182805480156110df57602002820191906000526020600020905b8154815260200190600101908083116110cb575b5050505050905090565b3373ffffffffffffffffffffffffffffffffffffffff1660008083815260200190815260200160002060010160019054906101000a900473ffffffffffffffffffffffffffffffffffffffff1673ffffffffffffffffffffffffffffffffffffffff161461115657600080fd5b600080600083815260200190815260200160002060030160009054906101000a900460ff1690506000600390508060008085815260200190815260200160002060030160006101000a81548160ff021916908360058111156111b457fe5b02179055507f1b8e19a458c1bcd88553332c518cc5c4e2d5793e712ee766d4f1c14f672ef1f560405160405180910390a17f0a97a4ee45751e2abf3e4fc8946939630b11b371ea8ae39ccdc3056e98f5cc3f8282604051611216929190612553565b60405180910390a1505050565b3373ffffffffffffffffffffffffffffffffffffffff1660008083815260200190815260200160002060010160019054906101000a900473ffffffffffffffffffffffffffffffffffffffff1673ffffffffffffffffffffffffffffffffffffffff161461129057600080fd5b600080600083815260200190815260200160002060030160009054906101000a900460ff1690506000600290508060008085815260200190815260200160002060030160006101000a81548160ff021916908360058111156112ee57fe5b02179055507f240cb87b2e4df4c318e72bd714d45a9cad60249e883ff56b1fffd83a4595a8fa60405160405180910390a17f0a97a4ee45751e2abf3e4fc8946939630b11b371ea8ae39ccdc3056e98f5cc3f8282604051611350929190612553565b60405180910390a1505050565b6001151560008083815260200190815260200160002060040160003373ffffffffffffffffffffffffffffffffffffffff1673ffffffffffffffffffffffffffffffffffffffff16815260200190815260200160002060000160009054906101000a900460ff16151514611406576040517f08c379a00000000000000000000000000000000000000000000000000000000081526004016113fd9061257c565b60405180910390fd5b6003600581111561141357fe5b60008083815260200190815260200160002060030160009054906101000a900460ff16600581111561144157fe5b1461144b57600080fd5b6000151560008083815260200190815260200160002060040160003373ffffffffffffffffffffffffffffffffffffffff1673ffffffffffffffffffffffffffffffffffffffff16815260200190815260200160002060000160159054906101000a900460ff161515146114be57600080fd5b600160008083815260200190815260200160002060040160003373ffffffffffffffffffffffffffffffffffffffff1673ffffffffffffffffffffffffffffffffffffffff16815260200190815260200160002060000160156101000a81548160ff0219169083151502179055506000808281526020019081526020016000206005016000838152602001908152602001600020600201600081548092919060010191905055507f4d99b957a2bc29a30ebd96a7be8e68fe50a3c701db28a91436490b7d53870ca433836040516115969291906124e6565b60405180910390a15050565b3373ffffffffffffffffffffffffffffffffffffffff1660008083815260200190815260200160002060010160019054906101000a900473ffffffffffffffffffffffffffffffffffffffff1673ffffffffffffffffffffffffffffffffffffffff161461160f57600080fd5b6000600581111561161c57fe5b60008083815260200190815260200160002060030160009054906101000a900460ff16600581111561164a57fe5b1461165457600080fd5b61165c611f7a565b60405180608001604052806001151581526020018473ffffffffffffffffffffffffffffffffffffffff168152602001600015158152602001600081525090508060008084815260200190815260200160002060040160008573ffffffffffffffffffffffffffffffffffffffff1673ffffffffffffffffffffffffffffffffffffffff16815260200190815260200160002060008201518160000160006101000a81548160ff02191690831515021790555060208201518160000160016101000a81548173ffffffffffffffffffffffffffffffffffffffff021916908373ffffffffffffffffffffffffffffffffffffffff16021790555060408201518160000160156101000a81548160ff02191690831515021790555060608201518160010155905050600080838152602001908152602001600020600201839080600181540180825580915050600190039060005260206000200160009091909190916101000a81548173ffffffffffffffffffffffffffffffffffffffff021916908373ffffffffffffffffffffffffffffffffffffffff160217905550600080838152602001908152602001600020600601600181819054906101000a900460ff168092919060010191906101000a81548160ff021916908360ff160217905550507fb6be2187d059cc2a55fe29e0e503b566e1e0f8c8780096e185429350acffd3dd8360405161186d91906124cb565b60405180910390a1505050565b6001151560008083815260200190815260200160002060040160003373ffffffffffffffffffffffffffffffffffffffff1673ffffffffffffffffffffffffffffffffffffffff16815260200190815260200160002060000160009054906101000a900460ff16151514611923576040517f08c379a000000000000000000000000000000000000000000000000000000000815260040161191a9061257c565b60405180910390fd5b6001600581111561193057fe5b60008083815260200190815260200160002060030160009054906101000a900460ff16600581111561195e57fe5b1461199e576040517f08c379a00000000000000000000000000000000000000000000000000000000081526004016119959061259c565b60405180910390fd5b6119a6611ef1565b604051806080016040528060008085815260200190815260200160002060060160009054906101000a900460ff1660ff1681526020013373ffffffffffffffffffffffffffffffffffffffff1681526020018481526020016000815250905080600080848152602001908152602001600020600501600080600086815260200190815260200160002060060160009054906101000a900460ff1660ff16815260200190815260200160002060008201518160000160006101000a81548160ff021916908360ff16021790555060208201518160000160016101000a81548173ffffffffffffffffffffffffffffffffffffffff021916908373ffffffffffffffffffffffffffffffffffffffff1602179055506040820151816001019080519060200190611ad5929190611fbc565b5060608201518160020155905050600080838152602001908152602001600020600601600081819054906101000a900460ff168092919060010191906101000a81548160ff021916908360ff160217905550507f92e393e9b54e2f801d3ea4beb0c5e71a21cc34a5d34b77d0fb8a3aa1650dc18f60008084815260200190815260200160002060060160009054906101000a900460ff16604051611b799190612668565b60405180910390a1505050565b3373ffffffffffffffffffffffffffffffffffffffff1660008083815260200190815260200160002060010160019054906101000a900473ffffffffffffffffffffffffffffffffffffffff1673ffffffffffffffffffffffffffffffffffffffff1614611bf357600080fd5b600080600083815260200190815260200160002060030160009054906101000a900460ff16905060008060008085815260200190815260200160002060030160006101000a81548160ff02191690836005811115611c4d57fe5b02179055507f28c5e727295d809da653948416bdc4fe30913878a5f1332ded39bc4730d10c5660405160405180910390a17f0a97a4ee45751e2abf3e4fc8946939630b11b371ea8ae39ccdc3056e98f5cc3f8282604051611caf929190612553565b60405180910390a1505050565b3373ffffffffffffffffffffffffffffffffffffffff1660008083815260200190815260200160002060010160019054906101000a900473ffffffffffffffffffffffffffffffffffffffff1673ffffffffffffffffffffffffffffffffffffffff1614611d2957600080fd5b600080600083815260200190815260200160002060030160009054906101000a900460ff1690506000600190508060008085815260200190815260200160002060030160006101000a81548160ff02191690836005811115611d8757fe5b02179055507f344c25562921d075a298d34b6dd1fd00d36ff293974539dfd4a8c625d9f0064c60405160405180910390a17f0a97a4ee45751e2abf3e4fc8946939630b11b371ea8ae39ccdc3056e98f5cc3f8282604051611de9929190612553565b60405180910390a1505050565b60405180610100016040528060008152602001600015158152602001600073ffffffffffffffffffffffffffffffffffffffff1681526020016060815260200160006005811115611e4357fe5b8152602001600060ff168152602001600060ff168152602001600060ff1681525090565b828054828255906000526020600020908101928215611ee0579160200282015b82811115611edf5782518260006101000a81548173ffffffffffffffffffffffffffffffffffffffff021916908373ffffffffffffffffffffffffffffffffffffffff16021790555091602001919060010190611e87565b5b509050611eed919061203c565b5090565b6040518060800160405280600060ff168152602001600073ffffffffffffffffffffffffffffffffffffffff16815260200160608152602001600081525090565b50805460018160011615610100020316600290046000825580601f10611f585750611f77565b601f016020900490600052602060002090810190611f769190612077565b5b50565b6040518060800160405280600015158152602001600073ffffffffffffffffffffffffffffffffffffffff168152602001600015158152602001600081525090565b828054600181600116156101000203166002900490600052602060002090601f016020900481019282601f10611ffd57805160ff191683800117855561202b565b8280016001018555821561202b579182015b8281111561202a57825182559160200191906001019061200f565b5b5090506120389190612077565b5090565b5b8082111561207357600081816101000a81549073ffffffffffffffffffffffffffffffffffffffff02191690555060010161203d565b5090565b5b80821115612090576000816000905550600101612078565b5090565b6000813590506120a3816128b8565b92915050565b600082601f8301126120ba57600080fd5b81356120cd6120c8826126cb565b61269e565b915080825260208301602083018583830111156120e957600080fd5b6120f4838284612858565b50505092915050565b60008135905061210c816128cf565b92915050565b6000806040838503121561212557600080fd5b600061213385828601612094565b9250506020612144858286016120fd565b9150509250929050565b6000806040838503121561216157600080fd5b600083013567ffffffffffffffff81111561217b57600080fd5b612187858286016120a9565b9250506020612198858286016120fd565b9150509250929050565b6000602082840312156121b457600080fd5b60006121c2848285016120fd565b91505092915050565b600080604083850312156121de57600080fd5b60006121ec858286016120fd565b92505060206121fd858286016120fd565b9150509250929050565b60006122138383612246565b60208301905092915050565b600061222b8383612480565b60208301905092915050565b612240816127fe565b82525050565b61224f81612796565b82525050565b61225e81612796565b82525050565b600061226f82612717565b6122798185612752565b9350612284836126f7565b8060005b838110156122b557815161229c8882612207565b97506122a783612738565b925050600181019050612288565b5085935050505092915050565b60006122cd82612722565b6122d78185612763565b93506122e283612707565b8060005b838110156123135781516122fa888261221f565b975061230583612745565b9250506001810190506122e6565b5085935050505092915050565b612329816127a8565b82525050565b61233881612810565b82525050565b60006123498261272d565b6123538185612774565b9350612363818560208601612867565b61236c8161289a565b840191505092915050565b6000612384601583612785565b91507f766f746572206e6f742077686974656c697374656400000000000000000000006000830152602082019050919050565b60006123c4602183612785565b91507f50726f706f73616c732073657373696f6e20686173206e6f742073746172746560008301527f64000000000000000000000000000000000000000000000000000000000000006020830152604082019050919050565b600060808301600083015161243560008601826124ad565b5060208301516124486020860182612246565b5060408301518482036040860152612460828261233e565b91505060608301516124756060860182612480565b508091505092915050565b612489816127e7565b82525050565b612498816127e7565b82525050565b6124a781612846565b82525050565b6124b6816127f1565b82525050565b6124c5816127f1565b82525050565b60006020820190506124e06000830184612255565b92915050565b60006040820190506124fb6000830185612237565b612508602083018461248f565b9392505050565b600060208201905081810360008301526125298184612264565b905092915050565b6000602082019050818103600083015261254b81846122c2565b905092915050565b6000604082019050612568600083018561232f565b612575602083018461232f565b9392505050565b6000602082019050818103600083015261259581612377565b9050919050565b600060208201905081810360008301526125b5816123b7565b9050919050565b600060208201905081810360008301526125d6818461241d565b905092915050565b60006020820190506125f3600083018461248f565b92915050565b600060e08201905061260e600083018a61248f565b61261b6020830189612320565b6126286040830188612255565b612635606083018761232f565b61264260808301866124bc565b61264f60a08301856124bc565b61265c60c08301846124bc565b98975050505050505050565b600060208201905061267d600083018461249e565b92915050565b600060208201905061269860008301846124bc565b92915050565b6000604051905081810181811067ffffffffffffffff821117156126c157600080fd5b8060405250919050565b600067ffffffffffffffff8211156126e257600080fd5b601f19601f8301169050602081019050919050565b6000819050602082019050919050565b6000819050602082019050919050565b600081519050919050565b600081519050919050565b600081519050919050565b6000602082019050919050565b6000602082019050919050565b600082825260208201905092915050565b600082825260208201905092915050565b600082825260208201905092915050565b600082825260208201905092915050565b60006127a1826127c7565b9050919050565b60008115159050919050565b60008190506127c2826128ab565b919050565b600073ffffffffffffffffffffffffffffffffffffffff82169050919050565b6000819050919050565b600060ff82169050919050565b600061280982612822565b9050919050565b600061281b826127b4565b9050919050565b600061282d82612834565b9050919050565b600061283f826127c7565b9050919050565b6000612851826127f1565b9050919050565b82818337600083830152505050565b60005b8381101561288557808201518184015260208101905061286a565b83811115612894576000848401525b50505050565b6000601f19601f8301169050919050565b600681106128b557fe5b50565b6128c181612796565b81146128cc57600080fd5b50565b6128d8816127e7565b81146128e357600080fd5b5056fea26469706673582212209f948c7bbe31e0e776ba6f0543763d9a663317e533a9acedee05e392dc0524c564736f6c634300060c0033",
  "immutableReferences": {},
  "source": "  \r\n///SPDX-License-Identifier: GPL-3.0\r\npragma solidity  ^ 0.6.0 ;\r\npragma experimental ABIEncoderV2;\r\n\r\ncontract  Voting  {\r\n    \r\n    //Voter Struct\r\n    struct Voter {\r\n        bool isRegistered;\r\n        address _address;\r\n        bool hasVoted;\r\n        uint256 votedProposalId;\r\n\r\n    }\r\n    //Proposal Struct\r\n    struct Proposal {\r\n        uint8 id;\r\n        address owner;\r\n        string description;\r\n        uint256 voteCount;\r\n    }\r\n\r\n    enum WorkflowStatus {\r\n        RegisteringVoters,\r\n        ProposalsRegistrationStarted,\r\n        ProposalsRegistrationEnded,\r\n        VotingSessionStarted,\r\n        VotingSessionEnded,\r\n        VotesTallied\r\n    }\r\n\r\n    event NewVotingSystem ();\r\n    event VoterRegistered ( address  voterAddress );\r\n    event VoterRemoved ( address  _address );\r\n    event ProposalsRegistrationStarted ();\r\n    event ProposalsRegistrationEnded ();\r\n    event ProposalRegistered ( uint256  proposalId );\r\n    event ProposalRemoved ( uint256  proposalId );\r\n    event VotingSessionStarted ();\r\n    event VotingSessionEnded ();\r\n    event Voted ( address  voter , uint256  proposalId );\r\n    event VotesTallied ( uint8 _winningProposals  ) ;\r\n    event WorkflowStatusChange (\r\n        WorkflowStatus previousStatus,\r\n        WorkflowStatus newStatus\r\n    );\r\n\r\n    //Room Structure\r\n\r\n\r\n    struct Room{\r\n        uint256 id;\r\n        bool isActive;\r\n        address roomOwner;\r\n        address [] voters;\r\n        WorkflowStatus  status;\r\n        mapping (address => Voter)  whiteList;\r\n        mapping (uint256  => Proposal) proposals;\r\n        uint8   proposalIds;\r\n        uint8   votersCount;\r\n        uint8   winningProposalId;\r\n\r\n    }\r\n    \r\n     \r\n        mapping(uint256 => Room) public RoomList;\r\n        uint256[]  totalRooms;    \r\n    \r\n      function TotalRooms () public  view  returns ( uint256 [] memory) {\r\n        return totalRooms;\r\n    }\r\n\r\n    function getVoters (uint256 roomId) public  view  returns ( address [] memory ) {\r\n        return RoomList[roomId].voters;\r\n    }\r\n\r\n    function getWinningProposal (uint256 roomId) public  view  returns (Proposal memory  proposal ){\r\n\r\n        return RoomList[roomId].proposals[RoomList[roomId].winningProposalId];\r\n    }\r\n    //Create Rooms\r\n      function createRooms(uint256 id_) public{\r\n        Room memory newRoom;\r\n        newRoom.id = id_;\r\n        newRoom.roomOwner = msg.sender;\r\n        newRoom.isActive = true;\r\n        RoomList[id_] = newRoom;\r\n        totalRooms.push(id_); \r\n        emit NewVotingSystem  ();\r\n\r\n\r\n    }\r\n    //Delete Rooms\r\n    function deleteRoom(uint256 roomId)public {\r\n        require(RoomList[roomId].roomOwner == msg.sender);\r\n        RoomList[roomId].isActive = false;\r\n    }\r\n        \r\n    ///Add voter and whitelist\r\n    function addVoter (address _address,uint256 roomId ) public   {\r\n        require(RoomList[roomId].roomOwner == msg.sender);\r\n        require (RoomList[roomId].status == WorkflowStatus.RegisteringVoters);\r\n        Voter memory newVoter =  Voter ( true , _address, false , 0 );\r\n        RoomList[roomId].whiteList[_address] = newVoter;\r\n        RoomList[roomId].voters. push (_address);\r\n        RoomList[roomId].votersCount ++ ;\r\n        emit  VoterRegistered (_address);\r\n    }\r\n    //delete voter\r\n    function deleteVoter ( address _address,uint256 roomId ) public   {\r\n        require(RoomList[roomId].roomOwner == msg.sender);\r\n        delete RoomList[roomId].whiteList[_address];\r\n        RoomList[roomId].votersCount -- ;\r\n        emit  VoterRemoved (_address);\r\n    }\r\n\r\n    function resetVotingSession (uint256 roomId) public  {\r\n      require(RoomList[roomId].roomOwner == msg.sender);\r\n        WorkflowStatus previous = RoomList[roomId].status;\r\n        WorkflowStatus newStatus = WorkflowStatus.RegisteringVoters;\r\n        RoomList[roomId].status = newStatus;\r\n        emit NewVotingSystem  ( );\r\n        emit  WorkflowStatusChange (previous, newStatus);\r\n    }\r\n\r\n\r\n    function startProposalRegistration (uint256 roomId) public  {\r\n        require(RoomList[roomId].roomOwner == msg.sender);\r\n        WorkflowStatus previous = RoomList[roomId].status;\r\n        WorkflowStatus newStatus = WorkflowStatus.ProposalsRegistrationStarted;\r\n        RoomList[roomId].status = newStatus;\r\n        emit  ProposalsRegistrationStarted ();\r\n        emit  WorkflowStatusChange (previous, newStatus);\r\n    }\r\n\r\n    function endProposalRegistration (uint256 roomId) public  {\r\n        require(RoomList[roomId].roomOwner == msg.sender);\r\n        WorkflowStatus previous = RoomList[roomId].status;\r\n        WorkflowStatus newStatus = WorkflowStatus.ProposalsRegistrationEnded;\r\n         RoomList[roomId].status = newStatus;\r\n        emit  ProposalsRegistrationEnded ();\r\n        emit  WorkflowStatusChange (previous, newStatus);\r\n    }\r\n\r\n    function startVotingSession (uint256 roomId) public  {\r\n        require(RoomList[roomId].roomOwner == msg.sender);\r\n        WorkflowStatus previous = RoomList[roomId].status;\r\n        WorkflowStatus newStatus = WorkflowStatus.VotingSessionStarted;\r\n        RoomList[roomId].status = newStatus;\r\n        emit VotingSessionStarted  ();\r\n        emit  WorkflowStatusChange (previous, newStatus);\r\n    }\r\n\r\n    function endVotingSession (uint256 roomId) public  {\r\n        require(RoomList[roomId].roomOwner == msg.sender);\r\n        WorkflowStatus previous = RoomList[roomId].status;\r\n        WorkflowStatus newStatus = WorkflowStatus.VotingSessionEnded;\r\n        RoomList[roomId].status = newStatus;\r\n        emit VotingSessionEnded  ( );\r\n        emit  WorkflowStatusChange (previous, newStatus);\r\n    }\r\n\r\n\r\n\r\n\r\n    function addProposal ( string  memory  _description ,uint256 roomId) public   {\r\n  \r\n        require ( RoomList[roomId].whiteList [ msg.sender ] .isRegistered ==  true , \"voter not whitelisted\" );\r\n        require (RoomList[roomId].status == WorkflowStatus.ProposalsRegistrationStarted, \"Proposals session has not started\" );\r\n        Proposal memory newProposal = Proposal (RoomList[roomId].proposalIds, msg.sender , _description , 0 );\r\n        RoomList[roomId].proposals[RoomList[roomId].proposalIds] = newProposal;\r\n        RoomList[roomId].proposalIds ++ ;\r\n        emit  ProposalRegistered (RoomList[roomId].proposalIds);\r\n    }\r\n\r\n    function deleteProposal ( uint256 _id ,uint256 roomId ) public  {\r\n        require ( RoomList[roomId].whiteList [ msg.sender ] .isRegistered ==  true , \"voter not whitelisted\" );\r\n        require (RoomList[roomId].proposals[ _id ].owner ==  msg.sender ) ;\r\n        delete RoomList[roomId].proposals[_id];\r\n        emit  ProposalRemoved (_id);\r\n    }\r\n\r\n    function deleteProposalAdmin ( uint256 _id,uint256 roomId  ) public {\r\n        require(RoomList[roomId].roomOwner == msg.sender);\r\n        delete RoomList[roomId].proposals[_id];\r\n    }\r\n\r\n    function vote ( uint256 _id,uint256 roomId  ) public  {\r\n         require ( RoomList[roomId].whiteList [ msg.sender ] .isRegistered ==  true , \"voter not whitelisted\" );\r\n        require (RoomList[roomId].status == WorkflowStatus.VotingSessionStarted);\r\n        require ( RoomList[roomId].whiteList [ msg.sender ] .hasVoted ==  false );\r\n        RoomList[roomId].whiteList[ msg . sender ] .hasVoted =  true ;\r\n        RoomList[roomId].proposals[_id].voteCount ++ ;\r\n         emit Voted ( msg.sender , _id );\r\n    }\r\n   \r\n\r\n     function count(uint256 roomId) public  {\r\n         require(RoomList[roomId].roomOwner == msg.sender);\r\n        require(RoomList[roomId].status == WorkflowStatus.VotingSessionEnded);\r\n        uint8 id;\r\n        uint256 highestCount;\r\n        for (uint256 i = 0; i <= RoomList[roomId].proposalIds; i++) {\r\n            if (highestCount < RoomList[roomId].proposals[i].voteCount) {\r\n                highestCount = RoomList[roomId].proposals[i].voteCount;\r\n                id = RoomList[roomId].proposals[i].id;\r\n            }\r\n        }\r\n        RoomList[roomId].winningProposalId = id;\r\n        RoomList[roomId].status = WorkflowStatus.VotesTallied;\r\n        emit VotesTallied(RoomList[roomId].winningProposalId);   \r\n    } \r\n\r\n}\r\n",
  "sourcePath": "D:\\OpenSource\\BlockChain\\Projects\\Encode\\VotingDapp\\contracts\\Voting.sol",
  "compiler": {
    "name": "solc",
    "version": "0.6.12+commit.27d51765.Emscripten.clang"
  },
  "schemaVersion": "3.4.5",
  "updatedAt": "2022-06-07T17:38:33.737Z",
  "networkType": "ethereum",
  "devdoc": {
    "kind": "dev",
    "methods": {},
    "version": 1
  },
  "userdoc": {
    "kind": "user",
    "methods": {
      "addVoter(address,uint256)": {
        "notice": "Add voter and whitelist"
      }
    },
    "version": 1
  }
}